{
  "_format": "hh-sol-artifact-1",
  "contractName": "NFTMarketplace",
  "sourceName": "contracts/NFTMarketplace.sol",
  "abi": [
    {
      "inputs": [],
      "stateMutability": "nonpayable",
      "type": "constructor"
    },
    {
      "anonymous": false,
      "inputs": [
        {
          "indexed": true,
          "internalType": "address",
          "name": "owner",
          "type": "address"
        },
        {
          "indexed": true,
          "internalType": "address",
          "name": "approved",
          "type": "address"
        },
        {
          "indexed": true,
          "internalType": "uint256",
          "name": "tokenId",
          "type": "uint256"
        }
      ],
      "name": "Approval",
      "type": "event"
    },
    {
      "anonymous": false,
      "inputs": [
        {
          "indexed": true,
          "internalType": "address",
          "name": "owner",
          "type": "address"
        },
        {
          "indexed": true,
          "internalType": "address",
          "name": "operator",
          "type": "address"
        },
        {
          "indexed": false,
          "internalType": "bool",
          "name": "approved",
          "type": "bool"
        }
      ],
      "name": "ApprovalForAll",
      "type": "event"
    },
    {
      "anonymous": false,
      "inputs": [
        {
          "indexed": true,
          "internalType": "uint256",
          "name": "tokenId",
          "type": "uint256"
        },
        {
          "indexed": false,
          "internalType": "address",
          "name": "seller",
          "type": "address"
        },
        {
          "indexed": false,
          "internalType": "address",
          "name": "owner",
          "type": "address"
        },
        {
          "indexed": false,
          "internalType": "uint256",
          "name": "price",
          "type": "uint256"
        },
        {
          "indexed": false,
          "internalType": "bool",
          "name": "sold",
          "type": "bool"
        }
      ],
      "name": "MarketItemCreated",
      "type": "event"
    },
    {
      "anonymous": false,
      "inputs": [
        {
          "indexed": true,
          "internalType": "address",
          "name": "from",
          "type": "address"
        },
        {
          "indexed": true,
          "internalType": "address",
          "name": "to",
          "type": "address"
        },
        {
          "indexed": true,
          "internalType": "uint256",
          "name": "tokenId",
          "type": "uint256"
        }
      ],
      "name": "Transfer",
      "type": "event"
    },
    {
      "inputs": [
        {
          "internalType": "address",
          "name": "to",
          "type": "address"
        },
        {
          "internalType": "uint256",
          "name": "tokenId",
          "type": "uint256"
        }
      ],
      "name": "approve",
      "outputs": [],
      "stateMutability": "nonpayable",
      "type": "function"
    },
    {
      "inputs": [
        {
          "internalType": "address",
          "name": "owner",
          "type": "address"
        }
      ],
      "name": "balanceOf",
      "outputs": [
        {
          "internalType": "uint256",
          "name": "",
          "type": "uint256"
        }
      ],
      "stateMutability": "view",
      "type": "function"
    },
    {
      "inputs": [
        {
          "internalType": "uint256",
          "name": "tokenId",
          "type": "uint256"
        }
      ],
      "name": "createMarketSale",
      "outputs": [],
      "stateMutability": "payable",
      "type": "function"
    },
    {
      "inputs": [
        {
          "internalType": "string",
          "name": "tokenURI",
          "type": "string"
        },
        {
          "internalType": "uint256",
          "name": "price",
          "type": "uint256"
        }
      ],
      "name": "createToken",
      "outputs": [
        {
          "internalType": "uint256",
          "name": "",
          "type": "uint256"
        }
      ],
      "stateMutability": "payable",
      "type": "function"
    },
    {
      "inputs": [],
      "name": "fetchItemsListed",
      "outputs": [
        {
          "components": [
            {
              "internalType": "uint256",
              "name": "tokenId",
              "type": "uint256"
            },
            {
              "internalType": "address payable",
              "name": "seller",
              "type": "address"
            },
            {
              "internalType": "address payable",
              "name": "owner",
              "type": "address"
            },
            {
              "internalType": "uint256",
              "name": "price",
              "type": "uint256"
            },
            {
              "internalType": "bool",
              "name": "sold",
              "type": "bool"
            }
          ],
          "internalType": "struct NFTMarketplace.MarketItem[]",
          "name": "",
          "type": "tuple[]"
        }
      ],
      "stateMutability": "view",
      "type": "function"
    },
    {
      "inputs": [],
      "name": "fetchMarketItems",
      "outputs": [
        {
          "components": [
            {
              "internalType": "uint256",
              "name": "tokenId",
              "type": "uint256"
            },
            {
              "internalType": "address payable",
              "name": "seller",
              "type": "address"
            },
            {
              "internalType": "address payable",
              "name": "owner",
              "type": "address"
            },
            {
              "internalType": "uint256",
              "name": "price",
              "type": "uint256"
            },
            {
              "internalType": "bool",
              "name": "sold",
              "type": "bool"
            }
          ],
          "internalType": "struct NFTMarketplace.MarketItem[]",
          "name": "",
          "type": "tuple[]"
        }
      ],
      "stateMutability": "view",
      "type": "function"
    },
    {
      "inputs": [],
      "name": "fetchMyNFTs",
      "outputs": [
        {
          "components": [
            {
              "internalType": "uint256",
              "name": "tokenId",
              "type": "uint256"
            },
            {
              "internalType": "address payable",
              "name": "seller",
              "type": "address"
            },
            {
              "internalType": "address payable",
              "name": "owner",
              "type": "address"
            },
            {
              "internalType": "uint256",
              "name": "price",
              "type": "uint256"
            },
            {
              "internalType": "bool",
              "name": "sold",
              "type": "bool"
            }
          ],
          "internalType": "struct NFTMarketplace.MarketItem[]",
          "name": "",
          "type": "tuple[]"
        }
      ],
      "stateMutability": "view",
      "type": "function"
    },
    {
      "inputs": [
        {
          "internalType": "uint256",
          "name": "tokenId",
          "type": "uint256"
        }
      ],
      "name": "getApproved",
      "outputs": [
        {
          "internalType": "address",
          "name": "",
          "type": "address"
        }
      ],
      "stateMutability": "view",
      "type": "function"
    },
    {
      "inputs": [],
      "name": "getCreateTokenId",
      "outputs": [
        {
          "internalType": "uint256",
          "name": "",
          "type": "uint256"
        }
      ],
      "stateMutability": "view",
      "type": "function"
    },
    {
      "inputs": [],
      "name": "getListingPrice",
      "outputs": [
        {
          "internalType": "uint256",
          "name": "",
          "type": "uint256"
        }
      ],
      "stateMutability": "view",
      "type": "function"
    },
    {
      "inputs": [
        {
          "internalType": "address",
          "name": "owner",
          "type": "address"
        },
        {
          "internalType": "address",
          "name": "operator",
          "type": "address"
        }
      ],
      "name": "isApprovedForAll",
      "outputs": [
        {
          "internalType": "bool",
          "name": "",
          "type": "bool"
        }
      ],
      "stateMutability": "view",
      "type": "function"
    },
    {
      "inputs": [],
      "name": "name",
      "outputs": [
        {
          "internalType": "string",
          "name": "",
          "type": "string"
        }
      ],
      "stateMutability": "view",
      "type": "function"
    },
    {
      "inputs": [
        {
          "internalType": "uint256",
          "name": "tokenId",
          "type": "uint256"
        }
      ],
      "name": "ownerOf",
      "outputs": [
        {
          "internalType": "address",
          "name": "",
          "type": "address"
        }
      ],
      "stateMutability": "view",
      "type": "function"
    },
    {
      "inputs": [
        {
          "internalType": "uint256",
          "name": "tokenId",
          "type": "uint256"
        },
        {
          "internalType": "uint256",
          "name": "price",
          "type": "uint256"
        }
      ],
      "name": "resellToken",
      "outputs": [],
      "stateMutability": "payable",
      "type": "function"
    },
    {
      "inputs": [
        {
          "internalType": "address",
          "name": "from",
          "type": "address"
        },
        {
          "internalType": "address",
          "name": "to",
          "type": "address"
        },
        {
          "internalType": "uint256",
          "name": "tokenId",
          "type": "uint256"
        }
      ],
      "name": "safeTransferFrom",
      "outputs": [],
      "stateMutability": "nonpayable",
      "type": "function"
    },
    {
      "inputs": [
        {
          "internalType": "address",
          "name": "from",
          "type": "address"
        },
        {
          "internalType": "address",
          "name": "to",
          "type": "address"
        },
        {
          "internalType": "uint256",
          "name": "tokenId",
          "type": "uint256"
        },
        {
          "internalType": "bytes",
          "name": "_data",
          "type": "bytes"
        }
      ],
      "name": "safeTransferFrom",
      "outputs": [],
      "stateMutability": "nonpayable",
      "type": "function"
    },
    {
      "inputs": [
        {
          "internalType": "address",
          "name": "operator",
          "type": "address"
        },
        {
          "internalType": "bool",
          "name": "approved",
          "type": "bool"
        }
      ],
      "name": "setApprovalForAll",
      "outputs": [],
      "stateMutability": "nonpayable",
      "type": "function"
    },
    {
      "inputs": [
        {
          "internalType": "bytes4",
          "name": "interfaceId",
          "type": "bytes4"
        }
      ],
      "name": "supportsInterface",
      "outputs": [
        {
          "internalType": "bool",
          "name": "",
          "type": "bool"
        }
      ],
      "stateMutability": "view",
      "type": "function"
    },
    {
      "inputs": [],
      "name": "symbol",
      "outputs": [
        {
          "internalType": "string",
          "name": "",
          "type": "string"
        }
      ],
      "stateMutability": "view",
      "type": "function"
    },
    {
      "inputs": [
        {
          "internalType": "uint256",
          "name": "tokenId",
          "type": "uint256"
        }
      ],
      "name": "tokenURI",
      "outputs": [
        {
          "internalType": "string",
          "name": "",
          "type": "string"
        }
      ],
      "stateMutability": "view",
      "type": "function"
    },
    {
      "inputs": [
        {
          "internalType": "address",
          "name": "from",
          "type": "address"
        },
        {
          "internalType": "address",
          "name": "to",
          "type": "address"
        },
        {
          "internalType": "uint256",
          "name": "tokenId",
          "type": "uint256"
        }
      ],
      "name": "transferFrom",
      "outputs": [],
      "stateMutability": "nonpayable",
      "type": "function"
    },
    {
      "inputs": [
        {
          "internalType": "uint256",
          "name": "_listingPrice",
          "type": "uint256"
        }
      ],
      "name": "updateListingPrice",
      "outputs": [],
      "stateMutability": "payable",
      "type": "function"
    }
  ],
  "bytecode": "0x60806040526611c37937e080006009553480156200001c57600080fd5b506040805180820182526007815266169bdbdb53919560ca1b6020808301918252835180850190945260048452631693919560e21b908401528151919291620000689160009162000099565b5080516200007e90600190602084019062000099565b5050600a80546001600160a01b03191633179055506200017c565b828054620000a7906200013f565b90600052602060002090601f016020900481019282620000cb576000855562000116565b82601f10620000e657805160ff191683800117855562000116565b8280016001018555821562000116579182015b8281111562000116578251825591602001919060010190620000f9565b506200012492915062000128565b5090565b5b8082111562000124576000815560010162000129565b600181811c908216806200015457607f821691505b602082108114156200017657634e487b7160e01b600052602260045260246000fd5b50919050565b6124a3806200018c6000396000f3fe6080604052600436106101355760003560e01c80636352211e116100ab578063ae677aa31161006f578063ae677aa314610333578063b88d4fde14610346578063be9af53614610366578063c87b56dd14610379578063e219fc7514610399578063e985e9c5146103ac57600080fd5b80636352211e146102ab57806370a08231146102cb57806372b3b620146102eb57806395d89b41146102fe578063a22cb4651461031357600080fd5b806312e85585116100fd57806312e855851461020d578063202e37401461022c57806323b872dd1461024157806342842e0e1461026157806345f8fa8014610281578063591761da1461029657600080fd5b806301ffc9a71461013a57806306fdde031461016f578063081812fc14610191578063095ea7b3146101c95780630f08efe0146101eb575b600080fd5b34801561014657600080fd5b5061015a610155366004612042565b6103f5565b60405190151581526020015b60405180910390f35b34801561017b57600080fd5b50610184610447565b604051610166919061221d565b34801561019d57600080fd5b506101b16101ac3660046120d0565b6104d9565b6040516001600160a01b039091168152602001610166565b3480156101d557600080fd5b506101e96101e4366004612019565b610566565b005b3480156101f757600080fd5b5061020061067c565b60405161016691906121a1565b34801561021957600080fd5b506009545b604051908152602001610166565b34801561023857600080fd5b50610200610830565b34801561024d57600080fd5b506101e961025c366004611f2b565b610a22565b34801561026d57600080fd5b506101e961027c366004611f2b565b610a53565b34801561028d57600080fd5b50610200610a6e565b3480156102a257600080fd5b5061021e610c60565b3480156102b757600080fd5b506101b16102c63660046120d0565b610c6c565b3480156102d757600080fd5b5061021e6102e6366004611edf565b610ce3565b61021e6102f936600461207a565b610d6a565b34801561030a57600080fd5b50610184610dd8565b34801561031f57600080fd5b506101e961032e366004611fdf565b610de7565b6101e96103413660046120d0565b610df6565b34801561035257600080fd5b506101e9610361366004611f66565b610e6e565b6101e96103743660046120d0565b610ea6565b34801561038557600080fd5b506101846103943660046120d0565b611015565b6101e96103a73660046120e8565b61118c565b3480156103b857600080fd5b5061015a6103c7366004611ef9565b6001600160a01b03918216600090815260056020908152604080832093909416825291909152205460ff1690565b60006001600160e01b031982166380ac58cd60e01b148061042657506001600160e01b03198216635b5e139f60e01b145b8061044157506301ffc9a760e01b6001600160e01b03198316145b92915050565b606060008054610456906123a8565b80601f0160208091040260200160405190810160405280929190818152602001828054610482906123a8565b80156104cf5780601f106104a4576101008083540402835291602001916104cf565b820191906000526020600020905b8154815290600101906020018083116104b257829003601f168201915b5050505050905090565b60006104e482611284565b61054a5760405162461bcd60e51b815260206004820152602c60248201527f4552433732313a20617070726f76656420717565727920666f72206e6f6e657860448201526b34b9ba32b73a103a37b5b2b760a11b60648201526084015b60405180910390fd5b506000908152600460205260409020546001600160a01b031690565b600061057182610c6c565b9050806001600160a01b0316836001600160a01b031614156105df5760405162461bcd60e51b815260206004820152602160248201527f4552433732313a20617070726f76616c20746f2063757272656e74206f776e656044820152603960f91b6064820152608401610541565b336001600160a01b03821614806105fb57506105fb81336103c7565b61066d5760405162461bcd60e51b815260206004820152603860248201527f4552433732313a20617070726f76652063616c6c6572206973206e6f74206f7760448201527f6e6572206e6f7220617070726f76656420666f7220616c6c00000000000000006064820152608401610541565b61067783836112a1565b505050565b6060600061068960075490565b9050600061069660085490565b6007546106a39190612365565b90506000808267ffffffffffffffff8111156106cf57634e487b7160e01b600052604160045260246000fd5b60405190808252806020026020018201604052801561072857816020015b6040805160a0810182526000808252602080830182905292820181905260608201819052608082015282526000199092019101816106ed5790505b50905060005b848110156108275730600b6000610746846001612339565b81526020810191909152604001600020600201546001600160a01b03161415610815576000610776826001612339565b6000818152600b6020908152604091829020825160a0810184528154815260018201546001600160a01b039081169382019390935260028201549092169282019290925260038201546060820152600482015460ff1615156080820152855192935090918590879081106107fa57634e487b7160e01b600052603260045260246000fd5b6020908102919091010152610810600186612339565b945050505b8061081f816123e3565b91505061072e565b50949350505050565b6060600061083d60075490565b905060008060005b838110156108a05733600b600061085d846001612339565b81526020810191909152604001600020600201546001600160a01b0316141561088e5761088b600184612339565b92505b80610898816123e3565b915050610845565b5060008267ffffffffffffffff8111156108ca57634e487b7160e01b600052604160045260246000fd5b60405190808252806020026020018201604052801561092357816020015b6040805160a0810182526000808252602080830182905292820181905260608201819052608082015282526000199092019101816108e85790505b50905060005b848110156108275733600b6000610941846001612339565b81526020810191909152604001600020600201546001600160a01b03161415610a10576000610971826001612339565b6000818152600b6020908152604091829020825160a0810184528154815260018201546001600160a01b039081169382019390935260028201549092169282019290925260038201546060820152600482015460ff1615156080820152855192935090918590879081106109f557634e487b7160e01b600052603260045260246000fd5b6020908102919091010152610a0b600186612339565b945050505b80610a1a816123e3565b915050610929565b610a2c338261130f565b610a485760405162461bcd60e51b8152600401610541906122e8565b6106778383836113f8565b61067783838360405180602001604052806000815250610e6e565b60606000610a7b60075490565b905060008060005b83811015610ade5733600b6000610a9b846001612339565b81526020810191909152604001600020600101546001600160a01b03161415610acc57610ac9600184612339565b92505b80610ad6816123e3565b915050610a83565b5060008267ffffffffffffffff811115610b0857634e487b7160e01b600052604160045260246000fd5b604051908082528060200260200182016040528015610b6157816020015b6040805160a081018252600080825260208083018290529282018190526060820181905260808201528252600019909201910181610b265790505b50905060005b848110156108275733600b6000610b7f846001612339565b81526020810191909152604001600020600101546001600160a01b03161415610c4e576000610baf826001612339565b6000818152600b6020908152604091829020825160a0810184528154815260018201546001600160a01b039081169382019390935260028201549092169282019290925260038201546060820152600482015460ff161515608082015285519293509091859087908110610c3357634e487b7160e01b600052603260045260246000fd5b6020908102919091010152610c49600186612339565b945050505b80610c58816123e3565b915050610b67565b60008061044160075490565b6000818152600260205260408120546001600160a01b0316806104415760405162461bcd60e51b815260206004820152602960248201527f4552433732313a206f776e657220717565727920666f72206e6f6e657869737460448201526832b73a103a37b5b2b760b91b6064820152608401610541565b60006001600160a01b038216610d4e5760405162461bcd60e51b815260206004820152602a60248201527f4552433732313a2062616c616e636520717565727920666f7220746865207a65604482015269726f206164647265737360b01b6064820152608401610541565b506001600160a01b031660009081526003602052604090205490565b6000610d7a600780546001019055565b6000610d8560075490565b9050610d913382611594565b610d9b81856116c7565b610da58184611752565b610dd16040518060400160405280600a8152602001691b995dd51bdad95b925960b21b815250826118a8565b9392505050565b606060018054610456906123a8565b610df23383836118ed565b5050565b600a546001600160a01b03163314610e695760405162461bcd60e51b815260206004820152603060248201527f4f6e6c79206d61726b6574706c616365206f776e65722063616e20757064617460448201526f32903634b9ba34b73390383934b1b29760811b6064820152608401610541565b600955565b610e78338361130f565b610e945760405162461bcd60e51b8152600401610541906122e8565b610ea0848484846119bc565b50505050565b6000818152600b6020526040902060038101546001909101546001600160a01b0316610ed282826119ef565b813414610f49576040805162461bcd60e51b81526020600482015260248101919091527f506c65617365207375626d6974207468652061736b696e67207072696365206960448201527f6e206f7264657220746f20636f6d706c657465207468652070757263686173656064820152608401610541565b6000838152600b602052604090206002810180546001600160a01b0319908116331790915560048201805460ff1916600190811790915590910180549091169055610f98600880546001019055565b610fa33033856113f8565b600a546009546040516001600160a01b039092169181156108fc0291906000818181858888f19350505050158015610fdf573d6000803e3d6000fd5b506040516001600160a01b038216903480156108fc02916000818181858888f19350505050158015610ea0573d6000803e3d6000fd5b606061102082611284565b6110865760405162461bcd60e51b815260206004820152603160248201527f45524337323155524953746f726167653a2055524920717565727920666f72206044820152703737b732bc34b9ba32b73a103a37b5b2b760791b6064820152608401610541565b6000828152600660205260408120805461109f906123a8565b80601f01602080910402602001604051908101604052809291908181526020018280546110cb906123a8565b80156111185780601f106110ed57610100808354040283529160200191611118565b820191906000526020600020905b8154815290600101906020018083116110fb57829003601f168201915b50505050509050600061113660408051602081019091526000815290565b9050805160001415611149575092915050565b81511561117b578082604051602001611163929190612135565b60405160208183030381529060405292505050919050565b61118484611a3e565b949350505050565b6000828152600b60205260409020600201546001600160a01b031633146112085760405162461bcd60e51b815260206004820152602a60248201527f4f6e6c79206974656d206f776e65722063616e20706572666f726d20746869736044820152691037b832b930ba34b7b760b11b6064820152608401610541565b60095434146112295760405162461bcd60e51b8152600401610541906122a4565b6000828152600b6020526040902060048101805460ff19169055600381018290556001810180546001600160a01b0319908116331790915560029091018054909116301790556112796008611b15565b610df23330846113f8565b6000908152600260205260409020546001600160a01b0316151590565b600081815260046020526040902080546001600160a01b0319166001600160a01b03841690811790915581906112d682610c6c565b6001600160a01b03167f8c5be1e5ebec7d5bd14f71427d1e84f3dd0314c0f7b2291e5b200ac8c7c3b92560405160405180910390a45050565b600061131a82611284565b61137b5760405162461bcd60e51b815260206004820152602c60248201527f4552433732313a206f70657261746f7220717565727920666f72206e6f6e657860448201526b34b9ba32b73a103a37b5b2b760a11b6064820152608401610541565b600061138683610c6c565b9050806001600160a01b0316846001600160a01b031614806113cd57506001600160a01b0380821660009081526005602090815260408083209388168352929052205460ff165b806111845750836001600160a01b03166113e6846104d9565b6001600160a01b031614949350505050565b826001600160a01b031661140b82610c6c565b6001600160a01b03161461146f5760405162461bcd60e51b815260206004820152602560248201527f4552433732313a207472616e736665722066726f6d20696e636f72726563742060448201526437bbb732b960d91b6064820152608401610541565b6001600160a01b0382166114d15760405162461bcd60e51b8152602060048201526024808201527f4552433732313a207472616e7366657220746f20746865207a65726f206164646044820152637265737360e01b6064820152608401610541565b6114dc6000826112a1565b6001600160a01b0383166000908152600360205260408120805460019290611505908490612365565b90915550506001600160a01b0382166000908152600360205260408120805460019290611533908490612339565b909155505060008181526002602052604080822080546001600160a01b0319166001600160a01b0386811691821790925591518493918716917fddf252ad1be2c89b69c2b068fc378daa952ba7f163c4a11628f55a4df523b3ef91a4505050565b6001600160a01b0382166115ea5760405162461bcd60e51b815260206004820181905260248201527f4552433732313a206d696e7420746f20746865207a65726f20616464726573736044820152606401610541565b6115f381611284565b156116405760405162461bcd60e51b815260206004820152601c60248201527f4552433732313a20746f6b656e20616c7265616479206d696e746564000000006044820152606401610541565b6001600160a01b0382166000908152600360205260408120805460019290611669908490612339565b909155505060008181526002602052604080822080546001600160a01b0319166001600160a01b03861690811790915590518392907fddf252ad1be2c89b69c2b068fc378daa952ba7f163c4a11628f55a4df523b3ef908290a45050565b6116d082611284565b6117335760405162461bcd60e51b815260206004820152602e60248201527f45524337323155524953746f726167653a2055524920736574206f66206e6f6e60448201526d32bc34b9ba32b73a103a37b5b2b760911b6064820152608401610541565b6000828152600660209081526040909120825161067792840190611db4565b600081116117a25760405162461bcd60e51b815260206004820152601c60248201527f5072696365206d757374206265206174206c65617374203120776569000000006044820152606401610541565b60095434146117c35760405162461bcd60e51b8152600401610541906122a4565b6040805160a08101825283815233602080830182815230848601818152606086018881526000608088018181528b8252600b909652979097209551865591516001860180546001600160a01b03199081166001600160a01b0393841617909155925160028701805490941691161790915593516003840155516004909201805460ff19169215159290921790915561185b91846113f8565b604080513381523060208201529081018290526000606082015282907fb640004f1d14576d0c209e240cad0410e0d8c0c33a09375861fbadae2588a98d9060800160405180910390a25050565b610df282826040516024016118be929190612230565b60408051601f198184030181529190526020810180516001600160e01b03166309710a9d60e41b179052611b6c565b816001600160a01b0316836001600160a01b0316141561194f5760405162461bcd60e51b815260206004820152601960248201527f4552433732313a20617070726f766520746f2063616c6c6572000000000000006044820152606401610541565b6001600160a01b03838116600081815260056020908152604080832094871680845294825291829020805460ff191686151590811790915591519182527f17307eab39ab6107e8899845ad3d59bd9653f200f220920489ca2b5937696c31910160405180910390a3505050565b6119c78484846113f8565b6119d384848484611b8d565b610ea05760405162461bcd60e51b815260040161054190612252565b604051602481018390526001600160a01b0382166044820152610df29060640160408051601f198184030181529190526020810180516001600160e01b031663163ae18360e21b179052611b6c565b6060611a4982611284565b611aad5760405162461bcd60e51b815260206004820152602f60248201527f4552433732314d657461646174613a2055524920717565727920666f72206e6f60448201526e3732bc34b9ba32b73a103a37b5b2b760891b6064820152608401610541565b6000611ac460408051602081019091526000815290565b90506000815111611ae45760405180602001604052806000815250610dd1565b80611aee84611c9a565b604051602001611aff929190612135565b6040516020818303038152906040529392505050565b805480611b645760405162461bcd60e51b815260206004820152601b60248201527f436f756e7465723a2064656372656d656e74206f766572666c6f7700000000006044820152606401610541565b600019019055565b80516a636f6e736f6c652e6c6f67602083016000808483855afa5050505050565b60006001600160a01b0384163b15611c8f57604051630a85bd0160e11b81526001600160a01b0385169063150b7a0290611bd1903390899088908890600401612164565b602060405180830381600087803b158015611beb57600080fd5b505af1925050508015611c1b575060408051601f3d908101601f19168201909252611c189181019061205e565b60015b611c75573d808015611c49576040519150601f19603f3d011682016040523d82523d6000602084013e611c4e565b606091505b508051611c6d5760405162461bcd60e51b815260040161054190612252565b805181602001fd5b6001600160e01b031916630a85bd0160e11b149050611184565b506001949350505050565b606081611cbe5750506040805180820190915260018152600360fc1b602082015290565b8160005b8115611ce85780611cd2816123e3565b9150611ce19050600a83612351565b9150611cc2565b60008167ffffffffffffffff811115611d1157634e487b7160e01b600052604160045260246000fd5b6040519080825280601f01601f191660200182016040528015611d3b576020820181803683370190505b5090505b841561118457611d50600183612365565b9150611d5d600a866123fe565b611d68906030612339565b60f81b818381518110611d8b57634e487b7160e01b600052603260045260246000fd5b60200101906001600160f81b031916908160001a905350611dad600a86612351565b9450611d3f565b828054611dc0906123a8565b90600052602060002090601f016020900481019282611de25760008555611e28565b82601f10611dfb57805160ff1916838001178555611e28565b82800160010185558215611e28579182015b82811115611e28578251825591602001919060010190611e0d565b50611e34929150611e38565b5090565b5b80821115611e345760008155600101611e39565b600067ffffffffffffffff80841115611e6857611e6861243e565b604051601f8501601f19908116603f01168101908282118183101715611e9057611e9061243e565b81604052809350858152868686011115611ea957600080fd5b858560208301376000602087830101525050509392505050565b80356001600160a01b0381168114611eda57600080fd5b919050565b600060208284031215611ef0578081fd5b610dd182611ec3565b60008060408385031215611f0b578081fd5b611f1483611ec3565b9150611f2260208401611ec3565b90509250929050565b600080600060608486031215611f3f578081fd5b611f4884611ec3565b9250611f5660208501611ec3565b9150604084013590509250925092565b60008060008060808587031215611f7b578081fd5b611f8485611ec3565b9350611f9260208601611ec3565b925060408501359150606085013567ffffffffffffffff811115611fb4578182fd5b8501601f81018713611fc4578182fd5b611fd387823560208401611e4d565b91505092959194509250565b60008060408385031215611ff1578182fd5b611ffa83611ec3565b91506020830135801515811461200e578182fd5b809150509250929050565b6000806040838503121561202b578182fd5b61203483611ec3565b946020939093013593505050565b600060208284031215612053578081fd5b8135610dd181612454565b60006020828403121561206f578081fd5b8151610dd181612454565b6000806040838503121561208c578182fd5b823567ffffffffffffffff8111156120a2578283fd5b8301601f810185136120b2578283fd5b6120c185823560208401611e4d565b95602094909401359450505050565b6000602082840312156120e1578081fd5b5035919050565b600080604083850312156120fa578182fd5b50508035926020909101359150565b6000815180845261212181602086016020860161237c565b601f01601f19169290920160200192915050565b6000835161214781846020880161237c565b83519083019061215b81836020880161237c565b01949350505050565b6001600160a01b038581168252841660208201526040810183905260806060820181905260009061219790830184612109565b9695505050505050565b602080825282518282018190526000919060409081850190868401855b8281101561221057815180518552868101516001600160a01b03908116888701528682015116868601526060808201519086015260809081015115159085015260a090930192908501906001016121be565b5091979650505050505050565b602081526000610dd16020830184612109565b6040815260006122436040830185612109565b90508260208301529392505050565b60208082526032908201527f4552433732313a207472616e7366657220746f206e6f6e20455243373231526560408201527131b2b4bb32b91034b6b83632b6b2b73a32b960711b606082015260800190565b60208082526024908201527f5072696365206d75737420626520657175616c20746f206c697374696e6720706040820152637269636560e01b606082015260800190565b60208082526031908201527f4552433732313a207472616e736665722063616c6c6572206973206e6f74206f6040820152701ddb995c881b9bdc88185c1c1c9bdd9959607a1b606082015260800190565b6000821982111561234c5761234c612412565b500190565b60008261236057612360612428565b500490565b60008282101561237757612377612412565b500390565b60005b8381101561239757818101518382015260200161237f565b83811115610ea05750506000910152565b600181811c908216806123bc57607f821691505b602082108114156123dd57634e487b7160e01b600052602260045260246000fd5b50919050565b60006000198214156123f7576123f7612412565b5060010190565b60008261240d5761240d612428565b500690565b634e487b7160e01b600052601160045260246000fd5b634e487b7160e01b600052601260045260246000fd5b634e487b7160e01b600052604160045260246000fd5b6001600160e01b03198116811461246a57600080fd5b5056fea2646970667358221220fca8a8cdfdaf7a34086d31cfbbc429ff3616ff02ea622763de6c14f02677da2764736f6c63430008040033",
  "linkReferences": {},
  "deployedLinkReferences": {}
}