{
  "_format": "hh-sol-artifact-1",
  "contractName": "NFTMarketplace",
  "sourceName": "contracts/NFTMarketplace.sol",
  "abi": [
    {
      "anonymous": false,
      "inputs": [
        {
          "indexed": true,
          "internalType": "address",
          "name": "owner",
          "type": "address"
        },
        {
          "indexed": true,
          "internalType": "address",
          "name": "approved",
          "type": "address"
        },
        {
          "indexed": true,
          "internalType": "uint256",
          "name": "tokenId",
          "type": "uint256"
        }
      ],
      "name": "Approval",
      "type": "event"
    },
    {
      "anonymous": false,
      "inputs": [
        {
          "indexed": true,
          "internalType": "address",
          "name": "owner",
          "type": "address"
        },
        {
          "indexed": true,
          "internalType": "address",
          "name": "operator",
          "type": "address"
        },
        {
          "indexed": false,
          "internalType": "bool",
          "name": "approved",
          "type": "bool"
        }
      ],
      "name": "ApprovalForAll",
      "type": "event"
    },
    {
      "anonymous": false,
      "inputs": [
        {
          "indexed": true,
          "internalType": "uint256",
          "name": "tokenId",
          "type": "uint256"
        },
        {
          "indexed": false,
          "internalType": "address",
          "name": "seller",
          "type": "address"
        },
        {
          "indexed": false,
          "internalType": "address",
          "name": "owner",
          "type": "address"
        },
        {
          "indexed": false,
          "internalType": "bool",
          "name": "sold",
          "type": "bool"
        }
      ],
      "name": "BuyMarketItem",
      "type": "event"
    },
    {
      "anonymous": false,
      "inputs": [
        {
          "indexed": false,
          "internalType": "uint8",
          "name": "version",
          "type": "uint8"
        }
      ],
      "name": "Initialized",
      "type": "event"
    },
    {
      "anonymous": false,
      "inputs": [
        {
          "indexed": true,
          "internalType": "uint256",
          "name": "tokenId",
          "type": "uint256"
        },
        {
          "indexed": false,
          "internalType": "address",
          "name": "seller",
          "type": "address"
        },
        {
          "indexed": false,
          "internalType": "address",
          "name": "owner",
          "type": "address"
        },
        {
          "indexed": false,
          "internalType": "uint256",
          "name": "price",
          "type": "uint256"
        },
        {
          "indexed": false,
          "internalType": "bool",
          "name": "sold",
          "type": "bool"
        },
        {
          "indexed": false,
          "internalType": "string",
          "name": "fileUrl",
          "type": "string"
        }
      ],
      "name": "MarketItemCreated",
      "type": "event"
    },
    {
      "anonymous": false,
      "inputs": [
        {
          "indexed": true,
          "internalType": "uint256",
          "name": "tokenId",
          "type": "uint256"
        },
        {
          "indexed": false,
          "internalType": "address",
          "name": "seller",
          "type": "address"
        },
        {
          "indexed": false,
          "internalType": "address",
          "name": "owner",
          "type": "address"
        },
        {
          "indexed": false,
          "internalType": "uint256",
          "name": "price",
          "type": "uint256"
        },
        {
          "indexed": false,
          "internalType": "bool",
          "name": "sold",
          "type": "bool"
        }
      ],
      "name": "ResellMarketItem",
      "type": "event"
    },
    {
      "anonymous": false,
      "inputs": [
        {
          "indexed": true,
          "internalType": "address",
          "name": "from",
          "type": "address"
        },
        {
          "indexed": true,
          "internalType": "address",
          "name": "to",
          "type": "address"
        },
        {
          "indexed": true,
          "internalType": "uint256",
          "name": "tokenId",
          "type": "uint256"
        }
      ],
      "name": "Transfer",
      "type": "event"
    },
    {
      "anonymous": false,
      "inputs": [
        {
          "indexed": false,
          "internalType": "uint256",
          "name": "listingPrice",
          "type": "uint256"
        }
      ],
      "name": "UpdateListingPrice",
      "type": "event"
    },
    {
      "inputs": [
        {
          "internalType": "address",
          "name": "to",
          "type": "address"
        },
        {
          "internalType": "uint256",
          "name": "tokenId",
          "type": "uint256"
        }
      ],
      "name": "approve",
      "outputs": [],
      "stateMutability": "nonpayable",
      "type": "function"
    },
    {
      "inputs": [
        {
          "internalType": "address",
          "name": "owner",
          "type": "address"
        }
      ],
      "name": "balanceOf",
      "outputs": [
        {
          "internalType": "uint256",
          "name": "",
          "type": "uint256"
        }
      ],
      "stateMutability": "view",
      "type": "function"
    },
    {
      "inputs": [
        {
          "internalType": "uint256",
          "name": "tokenId",
          "type": "uint256"
        }
      ],
      "name": "buyToken",
      "outputs": [],
      "stateMutability": "payable",
      "type": "function"
    },
    {
      "inputs": [
        {
          "internalType": "string",
          "name": "newTokenURI",
          "type": "string"
        },
        {
          "internalType": "uint256",
          "name": "price",
          "type": "uint256"
        },
        {
          "internalType": "string",
          "name": "fileUrl",
          "type": "string"
        }
      ],
      "name": "createToken",
      "outputs": [
        {
          "internalType": "uint256",
          "name": "",
          "type": "uint256"
        }
      ],
      "stateMutability": "payable",
      "type": "function"
    },
    {
      "inputs": [],
      "name": "fetchItemsListed",
      "outputs": [
        {
          "components": [
            {
              "internalType": "uint256",
              "name": "tokenId",
              "type": "uint256"
            },
            {
              "internalType": "address payable",
              "name": "seller",
              "type": "address"
            },
            {
              "internalType": "address payable",
              "name": "owner",
              "type": "address"
            },
            {
              "internalType": "uint256",
              "name": "price",
              "type": "uint256"
            },
            {
              "internalType": "bool",
              "name": "sold",
              "type": "bool"
            },
            {
              "internalType": "string",
              "name": "fileUrl",
              "type": "string"
            }
          ],
          "internalType": "struct NFTMarketplace.MarketItem[]",
          "name": "",
          "type": "tuple[]"
        }
      ],
      "stateMutability": "view",
      "type": "function"
    },
    {
      "inputs": [],
      "name": "fetchMarketItems",
      "outputs": [
        {
          "components": [
            {
              "internalType": "uint256",
              "name": "tokenId",
              "type": "uint256"
            },
            {
              "internalType": "address payable",
              "name": "seller",
              "type": "address"
            },
            {
              "internalType": "address payable",
              "name": "owner",
              "type": "address"
            },
            {
              "internalType": "uint256",
              "name": "price",
              "type": "uint256"
            },
            {
              "internalType": "bool",
              "name": "sold",
              "type": "bool"
            },
            {
              "internalType": "string",
              "name": "fileUrl",
              "type": "string"
            }
          ],
          "internalType": "struct NFTMarketplace.MarketItem[]",
          "name": "",
          "type": "tuple[]"
        }
      ],
      "stateMutability": "view",
      "type": "function"
    },
    {
      "inputs": [],
      "name": "fetchMyNFTs",
      "outputs": [
        {
          "components": [
            {
              "internalType": "uint256",
              "name": "tokenId",
              "type": "uint256"
            },
            {
              "internalType": "address payable",
              "name": "seller",
              "type": "address"
            },
            {
              "internalType": "address payable",
              "name": "owner",
              "type": "address"
            },
            {
              "internalType": "uint256",
              "name": "price",
              "type": "uint256"
            },
            {
              "internalType": "bool",
              "name": "sold",
              "type": "bool"
            },
            {
              "internalType": "string",
              "name": "fileUrl",
              "type": "string"
            }
          ],
          "internalType": "struct NFTMarketplace.MarketItem[]",
          "name": "",
          "type": "tuple[]"
        }
      ],
      "stateMutability": "view",
      "type": "function"
    },
    {
      "inputs": [
        {
          "internalType": "uint256",
          "name": "tokenId",
          "type": "uint256"
        }
      ],
      "name": "getApproved",
      "outputs": [
        {
          "internalType": "address",
          "name": "",
          "type": "address"
        }
      ],
      "stateMutability": "view",
      "type": "function"
    },
    {
      "inputs": [],
      "name": "getListingPrice",
      "outputs": [
        {
          "internalType": "uint256",
          "name": "",
          "type": "uint256"
        }
      ],
      "stateMutability": "view",
      "type": "function"
    },
    {
      "inputs": [],
      "name": "globalStore",
      "outputs": [],
      "stateMutability": "nonpayable",
      "type": "function"
    },
    {
      "inputs": [
        {
          "internalType": "address",
          "name": "owner",
          "type": "address"
        },
        {
          "internalType": "address",
          "name": "operator",
          "type": "address"
        }
      ],
      "name": "isApprovedForAll",
      "outputs": [
        {
          "internalType": "bool",
          "name": "",
          "type": "bool"
        }
      ],
      "stateMutability": "view",
      "type": "function"
    },
    {
      "inputs": [],
      "name": "name",
      "outputs": [
        {
          "internalType": "string",
          "name": "",
          "type": "string"
        }
      ],
      "stateMutability": "view",
      "type": "function"
    },
    {
      "inputs": [
        {
          "internalType": "uint256",
          "name": "tokenId",
          "type": "uint256"
        }
      ],
      "name": "ownerOf",
      "outputs": [
        {
          "internalType": "address",
          "name": "",
          "type": "address"
        }
      ],
      "stateMutability": "view",
      "type": "function"
    },
    {
      "inputs": [
        {
          "internalType": "uint256",
          "name": "tokenId",
          "type": "uint256"
        },
        {
          "internalType": "uint256",
          "name": "price",
          "type": "uint256"
        }
      ],
      "name": "resellToken",
      "outputs": [],
      "stateMutability": "payable",
      "type": "function"
    },
    {
      "inputs": [
        {
          "internalType": "address",
          "name": "from",
          "type": "address"
        },
        {
          "internalType": "address",
          "name": "to",
          "type": "address"
        },
        {
          "internalType": "uint256",
          "name": "tokenId",
          "type": "uint256"
        }
      ],
      "name": "safeTransferFrom",
      "outputs": [],
      "stateMutability": "nonpayable",
      "type": "function"
    },
    {
      "inputs": [
        {
          "internalType": "address",
          "name": "from",
          "type": "address"
        },
        {
          "internalType": "address",
          "name": "to",
          "type": "address"
        },
        {
          "internalType": "uint256",
          "name": "tokenId",
          "type": "uint256"
        },
        {
          "internalType": "bytes",
          "name": "data",
          "type": "bytes"
        }
      ],
      "name": "safeTransferFrom",
      "outputs": [],
      "stateMutability": "nonpayable",
      "type": "function"
    },
    {
      "inputs": [
        {
          "internalType": "address",
          "name": "operator",
          "type": "address"
        },
        {
          "internalType": "bool",
          "name": "approved",
          "type": "bool"
        }
      ],
      "name": "setApprovalForAll",
      "outputs": [],
      "stateMutability": "nonpayable",
      "type": "function"
    },
    {
      "inputs": [
        {
          "internalType": "bytes4",
          "name": "interfaceId",
          "type": "bytes4"
        }
      ],
      "name": "supportsInterface",
      "outputs": [
        {
          "internalType": "bool",
          "name": "",
          "type": "bool"
        }
      ],
      "stateMutability": "view",
      "type": "function"
    },
    {
      "inputs": [],
      "name": "symbol",
      "outputs": [
        {
          "internalType": "string",
          "name": "",
          "type": "string"
        }
      ],
      "stateMutability": "view",
      "type": "function"
    },
    {
      "inputs": [
        {
          "internalType": "uint256",
          "name": "tokenId",
          "type": "uint256"
        }
      ],
      "name": "tokenURI",
      "outputs": [
        {
          "internalType": "string",
          "name": "",
          "type": "string"
        }
      ],
      "stateMutability": "view",
      "type": "function"
    },
    {
      "inputs": [
        {
          "internalType": "address",
          "name": "from",
          "type": "address"
        },
        {
          "internalType": "address",
          "name": "to",
          "type": "address"
        },
        {
          "internalType": "uint256",
          "name": "tokenId",
          "type": "uint256"
        }
      ],
      "name": "transferFrom",
      "outputs": [],
      "stateMutability": "nonpayable",
      "type": "function"
    },
    {
      "inputs": [
        {
          "internalType": "uint256",
          "name": "_listingPrice",
          "type": "uint256"
        }
      ],
      "name": "updateListingPrice",
      "outputs": [],
      "stateMutability": "payable",
      "type": "function"
    }
  ],
  "bytecode": "0x608060405234801561001057600080fd5b506125f2806100206000396000f3fe6080604052600436106101355760003560e01c806345f8fa80116100ab578063ae677aa31161006f578063ae677aa31461033b578063b88d4fde1461034e578063c6c9b5b11461036e578063c87b56dd14610381578063e219fc75146103a1578063e985e9c5146103b457600080fd5b806345f8fa80146102b15780636352211e146102c657806370a08231146102e657806395d89b4114610306578063a22cb4651461031b57600080fd5b80630f08efe0116100fd5780630f08efe01461020857806312e855851461022a578063202e37401461024957806323b872dd1461025e5780632d296bf11461027e57806342842e0e1461029157600080fd5b806301ffc9a71461013a57806306fdde031461016f578063081812fc14610191578063095ea7b3146101c95780630b06fd89146101eb575b600080fd5b34801561014657600080fd5b5061015a610155366004612129565b6103fd565b60405190151581526020015b60405180910390f35b34801561017b57600080fd5b5061018461044f565b604051610166919061238e565b34801561019d57600080fd5b506101b16101ac3660046121cb565b6104e1565b6040516001600160a01b039091168152602001610166565b3480156101d557600080fd5b506101e96101e4366004612100565b610508565b005b3480156101f757600080fd5b506101e96611c37937e08000609955565b34801561021457600080fd5b5061021d610623565b60405161016691906122e2565b34801561023657600080fd5b506099545b604051908152602001610166565b34801561025557600080fd5b5061021d610850565b34801561026a57600080fd5b506101e9610279366004612012565b610abb565b6101e961028c3660046121cb565b610aec565b34801561029d57600080fd5b506101e96102ac366004612012565b610c9d565b3480156102bd57600080fd5b5061021d610cb8565b3480156102d257600080fd5b506101b16102e13660046121cb565b610f23565b3480156102f257600080fd5b5061023b610301366004611fc6565b610f83565b34801561031257600080fd5b50610184611009565b34801561032757600080fd5b506101e96103363660046120c6565b611018565b6101e96103493660046121cb565b611027565b34801561035a57600080fd5b506101e961036936600461204d565b6110d2565b61023b61037c366004612161565b61110a565b34801561038d57600080fd5b5061018461039c3660046121cb565b61114e565b6101e96103af3660046121e3565b611257565b3480156103c057600080fd5b5061015a6103cf366004611fe0565b6001600160a01b039182166000908152606a6020908152604080832093909416825291909152205460ff1690565b60006001600160e01b031982166380ac58cd60e01b148061042e57506001600160e01b03198216635b5e139f60e01b145b8061044957506301ffc9a760e01b6001600160e01b03198316145b92915050565b60606065805461045e90612524565b80601f016020809104026020016040519081016040528092919081815260200182805461048a90612524565b80156104d75780601f106104ac576101008083540402835291602001916104d7565b820191906000526020600020905b8154815290600101906020018083116104ba57829003601f168201915b5050505050905090565b60006104ec8261139c565b506000908152606960205260409020546001600160a01b031690565b600061051382610f23565b9050806001600160a01b0316836001600160a01b031614156105865760405162461bcd60e51b815260206004820152602160248201527f4552433732313a20617070726f76616c20746f2063757272656e74206f776e656044820152603960f91b60648201526084015b60405180910390fd5b336001600160a01b03821614806105a257506105a281336103cf565b6106145760405162461bcd60e51b815260206004820152603d60248201527f4552433732313a20617070726f76652063616c6c6572206973206e6f7420746f60448201527f6b656e206f776e6572206f7220617070726f76656420666f7220616c6c000000606482015260840161057d565b61061e83836113fe565b505050565b6060600061063060975490565b9050600061063d60985490565b60975461064a91906124e1565b90506000808267ffffffffffffffff81111561067657634e487b7160e01b600052604160045260246000fd5b6040519080825280602002602001820160405280156106af57816020015b61069c611e32565b8152602001906001900390816106945790505b50905060005b848110156108475730609b60006106cd8460016124c9565b81526020810191909152604001600020600201546001600160a01b031614156108355760006106fd8260016124c9565b6000818152609b6020908152604091829020825160c0810184528154815260018201546001600160a01b039081169382019390935260028201549092169282019290925260038201546060820152600482015460ff161515608082015260058201805493945091929091839160a08401919061077890612524565b80601f01602080910402602001604051908101604052809291908181526020018280546107a490612524565b80156107f15780601f106107c6576101008083540402835291602001916107f1565b820191906000526020600020905b8154815290600101906020018083116107d457829003601f168201915b50505050508152505084868151811061081a57634e487b7160e01b600052603260045260246000fd5b60209081029190910101526108306001866124c9565b945050505b8061083f8161255f565b9150506106b5565b50949350505050565b6060600061085d60975490565b905060008060005b838110156108c05733609b600061087d8460016124c9565b81526020810191909152604001600020600201546001600160a01b031614156108ae576108ab6001846124c9565b92505b806108b88161255f565b915050610865565b5060008267ffffffffffffffff8111156108ea57634e487b7160e01b600052604160045260246000fd5b60405190808252806020026020018201604052801561092357816020015b610910611e32565b8152602001906001900390816109085790505b50905060005b848110156108475733609b60006109418460016124c9565b81526020810191909152604001600020600201546001600160a01b03161415610aa95760006109718260016124c9565b6000818152609b6020908152604091829020825160c0810184528154815260018201546001600160a01b039081169382019390935260028201549092169282019290925260038201546060820152600482015460ff161515608082015260058201805493945091929091839160a0840191906109ec90612524565b80601f0160208091040260200160405190810160405280929190818152602001828054610a1890612524565b8015610a655780601f10610a3a57610100808354040283529160200191610a65565b820191906000526020600020905b815481529060010190602001808311610a4857829003601f168201915b505050505081525050848681518110610a8e57634e487b7160e01b600052603260045260246000fd5b6020908102919091010152610aa46001866124c9565b945050505b80610ab38161255f565b915050610929565b610ac5338261146c565b610ae15760405162461bcd60e51b815260040161057d906123a1565b61061e8383836114ea565b6000818152609b6020526040902060038101546001909101546001600160a01b0316348214610b85576040805162461bcd60e51b81526020600482015260248101919091527f506c65617365207375626d6974207468652061736b696e67207072696365206960448201527f6e206f7264657220746f20636f6d706c65746520746865207075726368617365606482015260840161057d565b6000838152609b602052604090206002810180546001600160a01b0319908116331790915560048201805460ff1916600190811790915590910180549091169055610bd4609880546001019055565b610bdf3033856114ea565b609a546099546040516001600160a01b039092169181156108fc0291906000818181858888f19350505050158015610c1b573d6000803e3d6000fd5b506040516001600160a01b038216903480156108fc02916000818181858888f19350505050158015610c51573d6000803e3d6000fd5b506040805133815230602082015260019181019190915283907f482e8f5277a28e1406c0002da6efa065e7fceda6ceb6ff15452ec682f4ca632e906060015b60405180910390a2505050565b61061e838383604051806020016040528060008152506110d2565b60606000610cc560975490565b905060008060005b83811015610d285733609b6000610ce58460016124c9565b81526020810191909152604001600020600101546001600160a01b03161415610d1657610d136001846124c9565b92505b80610d208161255f565b915050610ccd565b5060008267ffffffffffffffff811115610d5257634e487b7160e01b600052604160045260246000fd5b604051908082528060200260200182016040528015610d8b57816020015b610d78611e32565b815260200190600190039081610d705790505b50905060005b848110156108475733609b6000610da98460016124c9565b81526020810191909152604001600020600101546001600160a01b03161415610f11576000610dd98260016124c9565b6000818152609b6020908152604091829020825160c0810184528154815260018201546001600160a01b039081169382019390935260028201549092169282019290925260038201546060820152600482015460ff161515608082015260058201805493945091929091839160a084019190610e5490612524565b80601f0160208091040260200160405190810160405280929190818152602001828054610e8090612524565b8015610ecd5780601f10610ea257610100808354040283529160200191610ecd565b820191906000526020600020905b815481529060010190602001808311610eb057829003601f168201915b505050505081525050848681518110610ef657634e487b7160e01b600052603260045260246000fd5b6020908102919091010152610f0c6001866124c9565b945050505b80610f1b8161255f565b915050610d91565b6000818152606760205260408120546001600160a01b0316806104495760405162461bcd60e51b8152602060048201526018602482015277115490cdcc8c4e881a5b9d985b1a59081d1bdad95b88125160421b604482015260640161057d565b60006001600160a01b038216610fed5760405162461bcd60e51b815260206004820152602960248201527f4552433732313a2061646472657373207a65726f206973206e6f7420612076616044820152683634b21037bbb732b960b91b606482015260840161057d565b506001600160a01b031660009081526068602052604090205490565b60606066805461045e90612524565b61102333838361164e565b5050565b609a546001600160a01b0316331461109a5760405162461bcd60e51b815260206004820152603060248201527f4f6e6c79206d61726b6574706c616365206f776e65722063616e20757064617460448201526f32903634b9ba34b73390383934b1b29760811b606482015260840161057d565b6040518181527fd64a008aa5802376f7b7497a523d6c0e5b17ed849525fba5b92bbbb53ed6f8b29060200160405180910390a1609955565b6110dc338361146c565b6110f85760405162461bcd60e51b815260040161057d906123a1565b6111048484848461171d565b50505050565b600061111a609780546001019055565b600061112560975490565b90506111313382611750565b61113b81866118db565b611146818585611975565b949350505050565b60606111598261139c565b6000828152609c60205260408120805461117290612524565b80601f016020809104026020016040519081016040528092919081815260200182805461119e90612524565b80156111eb5780601f106111c0576101008083540402835291602001916111eb565b820191906000526020600020905b8154815290600101906020018083116111ce57829003601f168201915b50505050509050600061120960408051602081019091526000815290565b905080516000141561121c575092915050565b81511561124e578082604051602001611236929190612230565b60405160208183030381529060405292505050919050565b61114684611ad7565b6000828152609b60205260409020600201546001600160a01b031633146112d35760405162461bcd60e51b815260206004820152602a60248201527f4f6e6c79206974656d206f776e65722063616e20706572666f726d20746869736044820152691037b832b930ba34b7b760b11b606482015260840161057d565b60995434146112f45760405162461bcd60e51b815260040161057d90612485565b6000828152609b6020526040902060048101805460ff19169055600381018290556001810180546001600160a01b0319908116331790915560029091018054909116301790556113446098611b4b565b61134f3330846114ea565b604080513381523060208201529081018290526000606082015282907fdb0b4efb59fe813e2815d1171340de87a2e92c9ce3843b3207868fa9c3653dee9060800160405180910390a25050565b6000818152606760205260409020546001600160a01b03166113fb5760405162461bcd60e51b8152602060048201526018602482015277115490cdcc8c4e881a5b9d985b1a59081d1bdad95b88125160421b604482015260640161057d565b50565b600081815260696020526040902080546001600160a01b0319166001600160a01b038416908117909155819061143382610f23565b6001600160a01b03167f8c5be1e5ebec7d5bd14f71427d1e84f3dd0314c0f7b2291e5b200ac8c7c3b92560405160405180910390a45050565b60008061147883610f23565b9050806001600160a01b0316846001600160a01b031614806114bf57506001600160a01b038082166000908152606a602090815260408083209388168352929052205460ff165b806111465750836001600160a01b03166114d8846104e1565b6001600160a01b031614949350505050565b826001600160a01b03166114fd82610f23565b6001600160a01b0316146115235760405162461bcd60e51b815260040161057d90612440565b6001600160a01b0382166115855760405162461bcd60e51b8152602060048201526024808201527f4552433732313a207472616e7366657220746f20746865207a65726f206164646044820152637265737360e01b606482015260840161057d565b826001600160a01b031661159882610f23565b6001600160a01b0316146115be5760405162461bcd60e51b815260040161057d90612440565b600081815260696020908152604080832080546001600160a01b03199081169091556001600160a01b0387811680865260688552838620805460001901905590871680865283862080546001019055868652606790945282852080549092168417909155905184937fddf252ad1be2c89b69c2b068fc378daa952ba7f163c4a11628f55a4df523b3ef91a4505050565b816001600160a01b0316836001600160a01b031614156116b05760405162461bcd60e51b815260206004820152601960248201527f4552433732313a20617070726f766520746f2063616c6c657200000000000000604482015260640161057d565b6001600160a01b038381166000818152606a6020908152604080832094871680845294825291829020805460ff191686151590811790915591519182527f17307eab39ab6107e8899845ad3d59bd9653f200f220920489ca2b5937696c31910160405180910390a3505050565b6117288484846114ea565b61173484848484611ba2565b6111045760405162461bcd60e51b815260040161057d906123ee565b6001600160a01b0382166117a65760405162461bcd60e51b815260206004820181905260248201527f4552433732313a206d696e7420746f20746865207a65726f2061646472657373604482015260640161057d565b6000818152606760205260409020546001600160a01b03161561180b5760405162461bcd60e51b815260206004820152601c60248201527f4552433732313a20746f6b656e20616c7265616479206d696e74656400000000604482015260640161057d565b6000818152606760205260409020546001600160a01b0316156118705760405162461bcd60e51b815260206004820152601c60248201527f4552433732313a20746f6b656e20616c7265616479206d696e74656400000000604482015260640161057d565b6001600160a01b038216600081815260686020908152604080832080546001019055848352606790915280822080546001600160a01b0319168417905551839291907fddf252ad1be2c89b69c2b068fc378daa952ba7f163c4a11628f55a4df523b3ef908290a45050565b6000828152606760205260409020546001600160a01b03166119565760405162461bcd60e51b815260206004820152602e60248201527f45524337323155524953746f726167653a2055524920736574206f66206e6f6e60448201526d32bc34b9ba32b73a103a37b5b2b760911b606482015260840161057d565b6000828152609c60209081526040909120825161061e92840190611e7c565b600082116119c55760405162461bcd60e51b815260206004820152601c60248201527f5072696365206d757374206265206174206c6561737420312077656900000000604482015260640161057d565b60995434146119e65760405162461bcd60e51b815260040161057d90612485565b6040805160c081018252848152336020808301918252308385019081526060840187815260006080860181815260a087018981528b8352609b8652979091208651815594516001860180546001600160a01b03199081166001600160a01b039384161790915593516002870180549095169116179092555160038401555160048301805460ff19169115159190911790559251805192939192611a8f9260058501920190611e7c565b50905050611a9e3330856114ea565b827fddaeb01fb1ddce9789e64660541353c5a90fdd3e87ad074757173128396df021333085600086604051610c9095949392919061225f565b6060611ae28261139c565b6000611af960408051602081019091526000815290565b90506000815111611b195760405180602001604052806000815250611b44565b80611b2384611caf565b604051602001611b34929190612230565b6040516020818303038152906040525b9392505050565b805480611b9a5760405162461bcd60e51b815260206004820152601b60248201527f436f756e7465723a2064656372656d656e74206f766572666c6f770000000000604482015260640161057d565b600019019055565b60006001600160a01b0384163b15611ca457604051630a85bd0160e11b81526001600160a01b0385169063150b7a0290611be69033908990889088906004016122a5565b602060405180830381600087803b158015611c0057600080fd5b505af1925050508015611c30575060408051601f3d908101601f19168201909252611c2d91810190612145565b60015b611c8a573d808015611c5e576040519150601f19603f3d011682016040523d82523d6000602084013e611c63565b606091505b508051611c825760405162461bcd60e51b815260040161057d906123ee565b805181602001fd5b6001600160e01b031916630a85bd0160e11b149050611146565b506001949350505050565b60606000611cbc83611d5a565b600101905060008167ffffffffffffffff811115611cea57634e487b7160e01b600052604160045260246000fd5b6040519080825280601f01601f191660200182016040528015611d14576020820181803683370190505b5090508181016020015b600019016f181899199a1a9b1b9c1cb0b131b232b360811b600a86061a8153600a8504945084611d4d57611d52565b611d1e565b509392505050565b60008072184f03e93ff9f4daa797ed6e38ed64bf6a1f0160401b8310611d995772184f03e93ff9f4daa797ed6e38ed64bf6a1f0160401b830492506040015b6d04ee2d6d415b85acef81000000008310611dc5576d04ee2d6d415b85acef8100000000830492506020015b662386f26fc100008310611de357662386f26fc10000830492506010015b6305f5e1008310611dfb576305f5e100830492506008015b6127108310611e0f57612710830492506004015b60648310611e21576064830492506002015b600a83106104495760010192915050565b6040518060c001604052806000815260200160006001600160a01b0316815260200160006001600160a01b0316815260200160008152602001600015158152602001606081525090565b828054611e8890612524565b90600052602060002090601f016020900481019282611eaa5760008555611ef0565b82601f10611ec357805160ff1916838001178555611ef0565b82800160010185558215611ef0579182015b82811115611ef0578251825591602001919060010190611ed5565b50611efc929150611f00565b5090565b5b80821115611efc5760008155600101611f01565b600067ffffffffffffffff80841115611f3057611f30612590565b604051601f8501601f19908116603f01168101908282118183101715611f5857611f58612590565b81604052809350858152868686011115611f7157600080fd5b858560208301376000602087830101525050509392505050565b80356001600160a01b0381168114611fa257600080fd5b919050565b600082601f830112611fb7578081fd5b611b4483833560208501611f15565b600060208284031215611fd7578081fd5b611b4482611f8b565b60008060408385031215611ff2578081fd5b611ffb83611f8b565b915061200960208401611f8b565b90509250929050565b600080600060608486031215612026578081fd5b61202f84611f8b565b925061203d60208501611f8b565b9150604084013590509250925092565b60008060008060808587031215612062578081fd5b61206b85611f8b565b935061207960208601611f8b565b925060408501359150606085013567ffffffffffffffff81111561209b578182fd5b8501601f810187136120ab578182fd5b6120ba87823560208401611f15565b91505092959194509250565b600080604083850312156120d8578182fd5b6120e183611f8b565b9150602083013580151581146120f5578182fd5b809150509250929050565b60008060408385031215612112578182fd5b61211b83611f8b565b946020939093013593505050565b60006020828403121561213a578081fd5b8135611b44816125a6565b600060208284031215612156578081fd5b8151611b44816125a6565b600080600060608486031215612175578283fd5b833567ffffffffffffffff8082111561218c578485fd5b61219887838801611fa7565b94506020860135935060408601359150808211156121b4578283fd5b506121c186828701611fa7565b9150509250925092565b6000602082840312156121dc578081fd5b5035919050565b600080604083850312156121f5578182fd5b50508035926020909101359150565b6000815180845261221c8160208601602086016124f8565b601f01601f19169290920160200192915050565b600083516122428184602088016124f8565b8351908301906122568183602088016124f8565b01949350505050565b6001600160a01b0386811682528516602082015260408101849052821515606082015260a06080820181905260009061229a90830184612204565b979650505050505050565b6001600160a01b03858116825284166020820152604081018390526080606082018190526000906122d890830184612204565b9695505050505050565b60006020808301818452808551808352604092508286019150828160051b870101848801865b8381101561238057888303603f19018552815180518452878101516001600160a01b03908116898601528782015116878501526060808201519085015260808082015115159085015260a09081015160c09185018290529061236c81860183612204565b968901969450505090860190600101612308565b509098975050505050505050565b602081526000611b446020830184612204565b6020808252602d908201527f4552433732313a2063616c6c6572206973206e6f7420746f6b656e206f776e6560408201526c1c881bdc88185c1c1c9bdd9959609a1b606082015260800190565b60208082526032908201527f4552433732313a207472616e7366657220746f206e6f6e20455243373231526560408201527131b2b4bb32b91034b6b83632b6b2b73a32b960711b606082015260800190565b60208082526025908201527f4552433732313a207472616e736665722066726f6d20696e636f72726563742060408201526437bbb732b960d91b606082015260800190565b60208082526024908201527f5072696365206d75737420626520657175616c20746f206c697374696e6720706040820152637269636560e01b606082015260800190565b600082198211156124dc576124dc61257a565b500190565b6000828210156124f3576124f361257a565b500390565b60005b838110156125135781810151838201526020016124fb565b838111156111045750506000910152565b600181811c9082168061253857607f821691505b6020821081141561255957634e487b7160e01b600052602260045260246000fd5b50919050565b60006000198214156125735761257361257a565b5060010190565b634e487b7160e01b600052601160045260246000fd5b634e487b7160e01b600052604160045260246000fd5b6001600160e01b0319811681146113fb57600080fdfea264697066735822122084dce5f4a0ed47cb2f657c72069ed58ce19953608040e69ffe803012dc34c18c64736f6c63430008040033",
  "linkReferences": {},
  "deployedLinkReferences": {}
}