{
  "_format": "hh-sol-artifact-1",
  "contractName": "NFTMarketplace",
  "sourceName": "contracts/NFTMarketplace.sol",
  "abi": [
    {
      "inputs": [],
      "stateMutability": "nonpayable",
      "type": "constructor"
    },
    {
      "anonymous": false,
      "inputs": [
        {
          "indexed": true,
          "internalType": "address",
          "name": "owner",
          "type": "address"
        },
        {
          "indexed": true,
          "internalType": "address",
          "name": "approved",
          "type": "address"
        },
        {
          "indexed": true,
          "internalType": "uint256",
          "name": "tokenId",
          "type": "uint256"
        }
      ],
      "name": "Approval",
      "type": "event"
    },
    {
      "anonymous": false,
      "inputs": [
        {
          "indexed": true,
          "internalType": "address",
          "name": "owner",
          "type": "address"
        },
        {
          "indexed": true,
          "internalType": "address",
          "name": "operator",
          "type": "address"
        },
        {
          "indexed": false,
          "internalType": "bool",
          "name": "approved",
          "type": "bool"
        }
      ],
      "name": "ApprovalForAll",
      "type": "event"
    },
    {
      "anonymous": false,
      "inputs": [
        {
          "indexed": true,
          "internalType": "uint256",
          "name": "tokenId",
          "type": "uint256"
        },
        {
          "indexed": false,
          "internalType": "address",
          "name": "seller",
          "type": "address"
        },
        {
          "indexed": false,
          "internalType": "address",
          "name": "owner",
          "type": "address"
        },
        {
          "indexed": false,
          "internalType": "bool",
          "name": "sold",
          "type": "bool"
        }
      ],
      "name": "BuyMarketItem",
      "type": "event"
    },
    {
      "anonymous": false,
      "inputs": [
        {
          "indexed": true,
          "internalType": "uint256",
          "name": "tokenId",
          "type": "uint256"
        },
        {
          "indexed": false,
          "internalType": "address",
          "name": "seller",
          "type": "address"
        },
        {
          "indexed": false,
          "internalType": "address",
          "name": "owner",
          "type": "address"
        },
        {
          "indexed": false,
          "internalType": "uint256",
          "name": "price",
          "type": "uint256"
        },
        {
          "indexed": false,
          "internalType": "bool",
          "name": "sold",
          "type": "bool"
        },
        {
          "indexed": false,
          "internalType": "string",
          "name": "fileUrl",
          "type": "string"
        }
      ],
      "name": "MarketItemCreated",
      "type": "event"
    },
    {
      "anonymous": false,
      "inputs": [
        {
          "indexed": true,
          "internalType": "uint256",
          "name": "tokenId",
          "type": "uint256"
        },
        {
          "indexed": false,
          "internalType": "address",
          "name": "seller",
          "type": "address"
        },
        {
          "indexed": false,
          "internalType": "address",
          "name": "owner",
          "type": "address"
        },
        {
          "indexed": false,
          "internalType": "uint256",
          "name": "price",
          "type": "uint256"
        },
        {
          "indexed": false,
          "internalType": "bool",
          "name": "sold",
          "type": "bool"
        }
      ],
      "name": "ResellMarketItem",
      "type": "event"
    },
    {
      "anonymous": false,
      "inputs": [
        {
          "indexed": true,
          "internalType": "address",
          "name": "from",
          "type": "address"
        },
        {
          "indexed": true,
          "internalType": "address",
          "name": "to",
          "type": "address"
        },
        {
          "indexed": true,
          "internalType": "uint256",
          "name": "tokenId",
          "type": "uint256"
        }
      ],
      "name": "Transfer",
      "type": "event"
    },
    {
      "anonymous": false,
      "inputs": [
        {
          "indexed": false,
          "internalType": "uint256",
          "name": "listingPrice",
          "type": "uint256"
        }
      ],
      "name": "UpdateListingPrice",
      "type": "event"
    },
    {
      "inputs": [
        {
          "internalType": "address",
          "name": "to",
          "type": "address"
        },
        {
          "internalType": "uint256",
          "name": "tokenId",
          "type": "uint256"
        }
      ],
      "name": "approve",
      "outputs": [],
      "stateMutability": "nonpayable",
      "type": "function"
    },
    {
      "inputs": [
        {
          "internalType": "address",
          "name": "owner",
          "type": "address"
        }
      ],
      "name": "balanceOf",
      "outputs": [
        {
          "internalType": "uint256",
          "name": "",
          "type": "uint256"
        }
      ],
      "stateMutability": "view",
      "type": "function"
    },
    {
      "inputs": [
        {
          "internalType": "uint256",
          "name": "tokenId",
          "type": "uint256"
        }
      ],
      "name": "buyToken",
      "outputs": [],
      "stateMutability": "payable",
      "type": "function"
    },
    {
      "inputs": [
        {
          "internalType": "string",
          "name": "tokenURI",
          "type": "string"
        },
        {
          "internalType": "uint256",
          "name": "price",
          "type": "uint256"
        },
        {
          "internalType": "string",
          "name": "fileUrl",
          "type": "string"
        }
      ],
      "name": "createToken",
      "outputs": [
        {
          "internalType": "uint256",
          "name": "",
          "type": "uint256"
        }
      ],
      "stateMutability": "payable",
      "type": "function"
    },
    {
      "inputs": [],
      "name": "fetchItemsListed",
      "outputs": [
        {
          "components": [
            {
              "internalType": "uint256",
              "name": "tokenId",
              "type": "uint256"
            },
            {
              "internalType": "address payable",
              "name": "seller",
              "type": "address"
            },
            {
              "internalType": "address payable",
              "name": "owner",
              "type": "address"
            },
            {
              "internalType": "uint256",
              "name": "price",
              "type": "uint256"
            },
            {
              "internalType": "bool",
              "name": "sold",
              "type": "bool"
            },
            {
              "internalType": "string",
              "name": "fileUrl",
              "type": "string"
            }
          ],
          "internalType": "struct NFTMarketplace.MarketItem[]",
          "name": "",
          "type": "tuple[]"
        }
      ],
      "stateMutability": "view",
      "type": "function"
    },
    {
      "inputs": [],
      "name": "fetchMarketItems",
      "outputs": [
        {
          "components": [
            {
              "internalType": "uint256",
              "name": "tokenId",
              "type": "uint256"
            },
            {
              "internalType": "address payable",
              "name": "seller",
              "type": "address"
            },
            {
              "internalType": "address payable",
              "name": "owner",
              "type": "address"
            },
            {
              "internalType": "uint256",
              "name": "price",
              "type": "uint256"
            },
            {
              "internalType": "bool",
              "name": "sold",
              "type": "bool"
            },
            {
              "internalType": "string",
              "name": "fileUrl",
              "type": "string"
            }
          ],
          "internalType": "struct NFTMarketplace.MarketItem[]",
          "name": "",
          "type": "tuple[]"
        }
      ],
      "stateMutability": "view",
      "type": "function"
    },
    {
      "inputs": [],
      "name": "fetchMyNFTs",
      "outputs": [
        {
          "components": [
            {
              "internalType": "uint256",
              "name": "tokenId",
              "type": "uint256"
            },
            {
              "internalType": "address payable",
              "name": "seller",
              "type": "address"
            },
            {
              "internalType": "address payable",
              "name": "owner",
              "type": "address"
            },
            {
              "internalType": "uint256",
              "name": "price",
              "type": "uint256"
            },
            {
              "internalType": "bool",
              "name": "sold",
              "type": "bool"
            },
            {
              "internalType": "string",
              "name": "fileUrl",
              "type": "string"
            }
          ],
          "internalType": "struct NFTMarketplace.MarketItem[]",
          "name": "",
          "type": "tuple[]"
        }
      ],
      "stateMutability": "view",
      "type": "function"
    },
    {
      "inputs": [
        {
          "internalType": "uint256",
          "name": "tokenId",
          "type": "uint256"
        }
      ],
      "name": "getApproved",
      "outputs": [
        {
          "internalType": "address",
          "name": "",
          "type": "address"
        }
      ],
      "stateMutability": "view",
      "type": "function"
    },
    {
      "inputs": [],
      "name": "getListingPrice",
      "outputs": [
        {
          "internalType": "uint256",
          "name": "",
          "type": "uint256"
        }
      ],
      "stateMutability": "view",
      "type": "function"
    },
    {
      "inputs": [
        {
          "internalType": "address",
          "name": "owner",
          "type": "address"
        },
        {
          "internalType": "address",
          "name": "operator",
          "type": "address"
        }
      ],
      "name": "isApprovedForAll",
      "outputs": [
        {
          "internalType": "bool",
          "name": "",
          "type": "bool"
        }
      ],
      "stateMutability": "view",
      "type": "function"
    },
    {
      "inputs": [],
      "name": "name",
      "outputs": [
        {
          "internalType": "string",
          "name": "",
          "type": "string"
        }
      ],
      "stateMutability": "view",
      "type": "function"
    },
    {
      "inputs": [
        {
          "internalType": "uint256",
          "name": "tokenId",
          "type": "uint256"
        }
      ],
      "name": "ownerOf",
      "outputs": [
        {
          "internalType": "address",
          "name": "",
          "type": "address"
        }
      ],
      "stateMutability": "view",
      "type": "function"
    },
    {
      "inputs": [
        {
          "internalType": "uint256",
          "name": "tokenId",
          "type": "uint256"
        },
        {
          "internalType": "uint256",
          "name": "price",
          "type": "uint256"
        }
      ],
      "name": "resellToken",
      "outputs": [],
      "stateMutability": "payable",
      "type": "function"
    },
    {
      "inputs": [
        {
          "internalType": "address",
          "name": "from",
          "type": "address"
        },
        {
          "internalType": "address",
          "name": "to",
          "type": "address"
        },
        {
          "internalType": "uint256",
          "name": "tokenId",
          "type": "uint256"
        }
      ],
      "name": "safeTransferFrom",
      "outputs": [],
      "stateMutability": "nonpayable",
      "type": "function"
    },
    {
      "inputs": [
        {
          "internalType": "address",
          "name": "from",
          "type": "address"
        },
        {
          "internalType": "address",
          "name": "to",
          "type": "address"
        },
        {
          "internalType": "uint256",
          "name": "tokenId",
          "type": "uint256"
        },
        {
          "internalType": "bytes",
          "name": "data",
          "type": "bytes"
        }
      ],
      "name": "safeTransferFrom",
      "outputs": [],
      "stateMutability": "nonpayable",
      "type": "function"
    },
    {
      "inputs": [
        {
          "internalType": "address",
          "name": "operator",
          "type": "address"
        },
        {
          "internalType": "bool",
          "name": "approved",
          "type": "bool"
        }
      ],
      "name": "setApprovalForAll",
      "outputs": [],
      "stateMutability": "nonpayable",
      "type": "function"
    },
    {
      "inputs": [
        {
          "internalType": "bytes4",
          "name": "interfaceId",
          "type": "bytes4"
        }
      ],
      "name": "supportsInterface",
      "outputs": [
        {
          "internalType": "bool",
          "name": "",
          "type": "bool"
        }
      ],
      "stateMutability": "view",
      "type": "function"
    },
    {
      "inputs": [],
      "name": "symbol",
      "outputs": [
        {
          "internalType": "string",
          "name": "",
          "type": "string"
        }
      ],
      "stateMutability": "view",
      "type": "function"
    },
    {
      "inputs": [
        {
          "internalType": "uint256",
          "name": "tokenId",
          "type": "uint256"
        }
      ],
      "name": "tokenURI",
      "outputs": [
        {
          "internalType": "string",
          "name": "",
          "type": "string"
        }
      ],
      "stateMutability": "view",
      "type": "function"
    },
    {
      "inputs": [
        {
          "internalType": "address",
          "name": "from",
          "type": "address"
        },
        {
          "internalType": "address",
          "name": "to",
          "type": "address"
        },
        {
          "internalType": "uint256",
          "name": "tokenId",
          "type": "uint256"
        }
      ],
      "name": "transferFrom",
      "outputs": [],
      "stateMutability": "nonpayable",
      "type": "function"
    },
    {
      "inputs": [
        {
          "internalType": "uint256",
          "name": "_listingPrice",
          "type": "uint256"
        }
      ],
      "name": "updateListingPrice",
      "outputs": [],
      "stateMutability": "payable",
      "type": "function"
    }
  ],
  "bytecode": "0x60806040526611c37937e080006009553480156200001c57600080fd5b506040805180820182526007815266169bdbdb53919560ca1b6020808301918252835180850190945260048452631693919560e21b9084015281519192916200006891600091620000d5565b5080516200007e906001906020840190620000d5565b5050507fd64a008aa5802376f7b7497a523d6c0e5b17ed849525fba5b92bbbb53ed6f8b2600954604051620000b591815260200190565b60405180910390a1600a80546001600160a01b03191633179055620001b8565b828054620000e3906200017b565b90600052602060002090601f01602090048101928262000107576000855562000152565b82601f106200012257805160ff191683800117855562000152565b8280016001018555821562000152579182015b828111156200015257825182559160200191906001019062000135565b506200016092915062000164565b5090565b5b8082111562000160576000815560010162000165565b600181811c908216806200019057607f821691505b60208210811415620001b257634e487b7160e01b600052602260045260246000fd5b50919050565b61254a80620001c86000396000f3fe60806040526004361061012a5760003560e01c806345f8fa80116100ab578063ae677aa31161006f578063ae677aa314610313578063b88d4fde14610326578063c6c9b5b114610346578063c87b56dd14610359578063e219fc7514610379578063e985e9c51461038c57600080fd5b806345f8fa80146102895780636352211e1461029e57806370a08231146102be57806395d89b41146102de578063a22cb465146102f357600080fd5b806312e85585116100f257806312e8558514610202578063202e37401461022157806323b872dd146102365780632d296bf11461025657806342842e0e1461026957600080fd5b806301ffc9a71461012f57806306fdde0314610164578063081812fc14610186578063095ea7b3146101be5780630f08efe0146101e0575b600080fd5b34801561013b57600080fd5b5061014f61014a366004612087565b6103d5565b60405190151581526020015b60405180910390f35b34801561017057600080fd5b50610179610427565b60405161015b91906122ec565b34801561019257600080fd5b506101a66101a1366004612129565b6104b9565b6040516001600160a01b03909116815260200161015b565b3480156101ca57600080fd5b506101de6101d936600461205e565b6104e0565b005b3480156101ec57600080fd5b506101f56105fb565b60405161015b9190612240565b34801561020e57600080fd5b506009545b60405190815260200161015b565b34801561022d57600080fd5b506101f5610828565b34801561024257600080fd5b506101de610251366004611f70565b610a93565b6101de610264366004612129565b610ac4565b34801561027557600080fd5b506101de610284366004611f70565b610c75565b34801561029557600080fd5b506101f5610c90565b3480156102aa57600080fd5b506101a66102b9366004612129565b610efb565b3480156102ca57600080fd5b506102136102d9366004611f24565b610f5b565b3480156102ea57600080fd5b50610179610fe1565b3480156102ff57600080fd5b506101de61030e366004612024565b610ff0565b6101de610321366004612129565b610fff565b34801561033257600080fd5b506101de610341366004611fab565b6110aa565b6102136103543660046120bf565b6110e2565b34801561036557600080fd5b50610179610374366004612129565b611126565b6101de610387366004612141565b61122f565b34801561039857600080fd5b5061014f6103a7366004611f3e565b6001600160a01b03918216600090815260056020908152604080832093909416825291909152205460ff1690565b60006001600160e01b031982166380ac58cd60e01b148061040657506001600160e01b03198216635b5e139f60e01b145b8061042157506301ffc9a760e01b6001600160e01b03198316145b92915050565b60606000805461043690612452565b80601f016020809104026020016040519081016040528092919081815260200182805461046290612452565b80156104af5780601f10610484576101008083540402835291602001916104af565b820191906000526020600020905b81548152906001019060200180831161049257829003601f168201915b5050505050905090565b60006104c482611374565b506000908152600460205260409020546001600160a01b031690565b60006104eb82610efb565b9050806001600160a01b0316836001600160a01b0316141561055e5760405162461bcd60e51b815260206004820152602160248201527f4552433732313a20617070726f76616c20746f2063757272656e74206f776e656044820152603960f91b60648201526084015b60405180910390fd5b336001600160a01b038216148061057a575061057a81336103a7565b6105ec5760405162461bcd60e51b815260206004820152603e60248201527f4552433732313a20617070726f76652063616c6c6572206973206e6f7420746f60448201527f6b656e206f776e6572206e6f7220617070726f76656420666f7220616c6c00006064820152608401610555565b6105f683836113d6565b505050565b6060600061060860075490565b9050600061061560085490565b600754610622919061240f565b90506000808267ffffffffffffffff81111561064e57634e487b7160e01b600052604160045260246000fd5b60405190808252806020026020018201604052801561068757816020015b610674611d90565b81526020019060019003908161066c5790505b50905060005b8481101561081f5730600b60006106a58460016123e3565b81526020810191909152604001600020600201546001600160a01b0316141561080d5760006106d58260016123e3565b6000818152600b6020908152604091829020825160c0810184528154815260018201546001600160a01b039081169382019390935260028201549092169282019290925260038201546060820152600482015460ff161515608082015260058201805493945091929091839160a08401919061075090612452565b80601f016020809104026020016040519081016040528092919081815260200182805461077c90612452565b80156107c95780601f1061079e576101008083540402835291602001916107c9565b820191906000526020600020905b8154815290600101906020018083116107ac57829003601f168201915b5050505050815250508486815181106107f257634e487b7160e01b600052603260045260246000fd5b60209081029190910101526108086001866123e3565b945050505b806108178161248d565b91505061068d565b50949350505050565b6060600061083560075490565b905060008060005b838110156108985733600b60006108558460016123e3565b81526020810191909152604001600020600201546001600160a01b03161415610886576108836001846123e3565b92505b806108908161248d565b91505061083d565b5060008267ffffffffffffffff8111156108c257634e487b7160e01b600052604160045260246000fd5b6040519080825280602002602001820160405280156108fb57816020015b6108e8611d90565b8152602001906001900390816108e05790505b50905060005b8481101561081f5733600b60006109198460016123e3565b81526020810191909152604001600020600201546001600160a01b03161415610a815760006109498260016123e3565b6000818152600b6020908152604091829020825160c0810184528154815260018201546001600160a01b039081169382019390935260028201549092169282019290925260038201546060820152600482015460ff161515608082015260058201805493945091929091839160a0840191906109c490612452565b80601f01602080910402602001604051908101604052809291908181526020018280546109f090612452565b8015610a3d5780601f10610a1257610100808354040283529160200191610a3d565b820191906000526020600020905b815481529060010190602001808311610a2057829003601f168201915b505050505081525050848681518110610a6657634e487b7160e01b600052603260045260246000fd5b6020908102919091010152610a7c6001866123e3565b945050505b80610a8b8161248d565b915050610901565b610a9d3382611444565b610ab95760405162461bcd60e51b815260040161055590612395565b6105f68383836114c2565b6000818152600b6020526040902060038101546001909101546001600160a01b0316348214610b5d576040805162461bcd60e51b81526020600482015260248101919091527f506c65617365207375626d6974207468652061736b696e67207072696365206960448201527f6e206f7264657220746f20636f6d706c657465207468652070757263686173656064820152608401610555565b6000838152600b602052604090206002810180546001600160a01b0319908116331790915560048201805460ff1916600190811790915590910180549091169055610bac600880546001019055565b610bb73033856114c2565b600a546009546040516001600160a01b039092169181156108fc0291906000818181858888f19350505050158015610bf3573d6000803e3d6000fd5b506040516001600160a01b038216903480156108fc02916000818181858888f19350505050158015610c29573d6000803e3d6000fd5b506040805133815230602082015260019181019190915283907f482e8f5277a28e1406c0002da6efa065e7fceda6ceb6ff15452ec682f4ca632e906060015b60405180910390a2505050565b6105f6838383604051806020016040528060008152506110aa565b60606000610c9d60075490565b905060008060005b83811015610d005733600b6000610cbd8460016123e3565b81526020810191909152604001600020600101546001600160a01b03161415610cee57610ceb6001846123e3565b92505b80610cf88161248d565b915050610ca5565b5060008267ffffffffffffffff811115610d2a57634e487b7160e01b600052604160045260246000fd5b604051908082528060200260200182016040528015610d6357816020015b610d50611d90565b815260200190600190039081610d485790505b50905060005b8481101561081f5733600b6000610d818460016123e3565b81526020810191909152604001600020600101546001600160a01b03161415610ee9576000610db18260016123e3565b6000818152600b6020908152604091829020825160c0810184528154815260018201546001600160a01b039081169382019390935260028201549092169282019290925260038201546060820152600482015460ff161515608082015260058201805493945091929091839160a084019190610e2c90612452565b80601f0160208091040260200160405190810160405280929190818152602001828054610e5890612452565b8015610ea55780601f10610e7a57610100808354040283529160200191610ea5565b820191906000526020600020905b815481529060010190602001808311610e8857829003601f168201915b505050505081525050848681518110610ece57634e487b7160e01b600052603260045260246000fd5b6020908102919091010152610ee46001866123e3565b945050505b80610ef38161248d565b915050610d69565b6000818152600260205260408120546001600160a01b0316806104215760405162461bcd60e51b8152602060048201526018602482015277115490cdcc8c4e881a5b9d985b1a59081d1bdad95b88125160421b6044820152606401610555565b60006001600160a01b038216610fc55760405162461bcd60e51b815260206004820152602960248201527f4552433732313a2061646472657373207a65726f206973206e6f7420612076616044820152683634b21037bbb732b960b91b6064820152608401610555565b506001600160a01b031660009081526003602052604090205490565b60606001805461043690612452565b610ffb33838361165e565b5050565b600a546001600160a01b031633146110725760405162461bcd60e51b815260206004820152603060248201527f4f6e6c79206d61726b6574706c616365206f776e65722063616e20757064617460448201526f32903634b9ba34b73390383934b1b29760811b6064820152608401610555565b6040518181527fd64a008aa5802376f7b7497a523d6c0e5b17ed849525fba5b92bbbb53ed6f8b29060200160405180910390a1600955565b6110b43383611444565b6110d05760405162461bcd60e51b815260040161055590612395565b6110dc8484848461172d565b50505050565b60006110f2600780546001019055565b60006110fd60075490565b90506111093382611760565b61111381866118a2565b61111e81858561193c565b949350505050565b606061113182611374565b6000828152600660205260408120805461114a90612452565b80601f016020809104026020016040519081016040528092919081815260200182805461117690612452565b80156111c35780601f10611198576101008083540402835291602001916111c3565b820191906000526020600020905b8154815290600101906020018083116111a657829003601f168201915b5050505050905060006111e160408051602081019091526000815290565b90508051600014156111f4575092915050565b81511561122657808260405160200161120e92919061218e565b60405160208183030381529060405292505050919050565b61111e84611a9e565b6000828152600b60205260409020600201546001600160a01b031633146112ab5760405162461bcd60e51b815260206004820152602a60248201527f4f6e6c79206974656d206f776e65722063616e20706572666f726d20746869736044820152691037b832b930ba34b7b760b11b6064820152608401610555565b60095434146112cc5760405162461bcd60e51b815260040161055590612351565b6000828152600b6020526040902060048101805460ff19169055600381018290556001810180546001600160a01b03199081163317909155600290910180549091163017905561131c6008611b12565b6113273330846114c2565b604080513381523060208201529081018290526000606082015282907fdb0b4efb59fe813e2815d1171340de87a2e92c9ce3843b3207868fa9c3653dee9060800160405180910390a25050565b6000818152600260205260409020546001600160a01b03166113d35760405162461bcd60e51b8152602060048201526018602482015277115490cdcc8c4e881a5b9d985b1a59081d1bdad95b88125160421b6044820152606401610555565b50565b600081815260046020526040902080546001600160a01b0319166001600160a01b038416908117909155819061140b82610efb565b6001600160a01b03167f8c5be1e5ebec7d5bd14f71427d1e84f3dd0314c0f7b2291e5b200ac8c7c3b92560405160405180910390a45050565b60008061145083610efb565b9050806001600160a01b0316846001600160a01b0316148061149757506001600160a01b0380821660009081526005602090815260408083209388168352929052205460ff165b8061111e5750836001600160a01b03166114b0846104b9565b6001600160a01b031614949350505050565b826001600160a01b03166114d582610efb565b6001600160a01b0316146115395760405162461bcd60e51b815260206004820152602560248201527f4552433732313a207472616e736665722066726f6d20696e636f72726563742060448201526437bbb732b960d91b6064820152608401610555565b6001600160a01b03821661159b5760405162461bcd60e51b8152602060048201526024808201527f4552433732313a207472616e7366657220746f20746865207a65726f206164646044820152637265737360e01b6064820152608401610555565b6115a66000826113d6565b6001600160a01b03831660009081526003602052604081208054600192906115cf90849061240f565b90915550506001600160a01b03821660009081526003602052604081208054600192906115fd9084906123e3565b909155505060008181526002602052604080822080546001600160a01b0319166001600160a01b0386811691821790925591518493918716917fddf252ad1be2c89b69c2b068fc378daa952ba7f163c4a11628f55a4df523b3ef91a4505050565b816001600160a01b0316836001600160a01b031614156116c05760405162461bcd60e51b815260206004820152601960248201527f4552433732313a20617070726f766520746f2063616c6c6572000000000000006044820152606401610555565b6001600160a01b03838116600081815260056020908152604080832094871680845294825291829020805460ff191686151590811790915591519182527f17307eab39ab6107e8899845ad3d59bd9653f200f220920489ca2b5937696c31910160405180910390a3505050565b6117388484846114c2565b61174484848484611b69565b6110dc5760405162461bcd60e51b8152600401610555906122ff565b6001600160a01b0382166117b65760405162461bcd60e51b815260206004820181905260248201527f4552433732313a206d696e7420746f20746865207a65726f20616464726573736044820152606401610555565b6000818152600260205260409020546001600160a01b03161561181b5760405162461bcd60e51b815260206004820152601c60248201527f4552433732313a20746f6b656e20616c7265616479206d696e746564000000006044820152606401610555565b6001600160a01b03821660009081526003602052604081208054600192906118449084906123e3565b909155505060008181526002602052604080822080546001600160a01b0319166001600160a01b03861690811790915590518392907fddf252ad1be2c89b69c2b068fc378daa952ba7f163c4a11628f55a4df523b3ef908290a45050565b6000828152600260205260409020546001600160a01b031661191d5760405162461bcd60e51b815260206004820152602e60248201527f45524337323155524953746f726167653a2055524920736574206f66206e6f6e60448201526d32bc34b9ba32b73a103a37b5b2b760911b6064820152608401610555565b600082815260066020908152604090912082516105f692840190611dda565b6000821161198c5760405162461bcd60e51b815260206004820152601c60248201527f5072696365206d757374206265206174206c65617374203120776569000000006044820152606401610555565b60095434146119ad5760405162461bcd60e51b815260040161055590612351565b6040805160c081018252848152336020808301918252308385019081526060840187815260006080860181815260a087018981528b8352600b8652979091208651815594516001860180546001600160a01b03199081166001600160a01b039384161790915593516002870180549095169116179092555160038401555160048301805460ff19169115159190911790559251805192939192611a569260058501920190611dda565b50905050611a653330856114c2565b827fddaeb01fb1ddce9789e64660541353c5a90fdd3e87ad074757173128396df021333085600086604051610c689594939291906121bd565b6060611aa982611374565b6000611ac060408051602081019091526000815290565b90506000815111611ae05760405180602001604052806000815250611b0b565b80611aea84611c76565b604051602001611afb92919061218e565b6040516020818303038152906040525b9392505050565b805480611b615760405162461bcd60e51b815260206004820152601b60248201527f436f756e7465723a2064656372656d656e74206f766572666c6f7700000000006044820152606401610555565b600019019055565b60006001600160a01b0384163b15611c6b57604051630a85bd0160e11b81526001600160a01b0385169063150b7a0290611bad903390899088908890600401612203565b602060405180830381600087803b158015611bc757600080fd5b505af1925050508015611bf7575060408051601f3d908101601f19168201909252611bf4918101906120a3565b60015b611c51573d808015611c25576040519150601f19603f3d011682016040523d82523d6000602084013e611c2a565b606091505b508051611c495760405162461bcd60e51b8152600401610555906122ff565b805181602001fd5b6001600160e01b031916630a85bd0160e11b14905061111e565b506001949350505050565b606081611c9a5750506040805180820190915260018152600360fc1b602082015290565b8160005b8115611cc45780611cae8161248d565b9150611cbd9050600a836123fb565b9150611c9e565b60008167ffffffffffffffff811115611ced57634e487b7160e01b600052604160045260246000fd5b6040519080825280601f01601f191660200182016040528015611d17576020820181803683370190505b5090505b841561111e57611d2c60018361240f565b9150611d39600a866124a8565b611d449060306123e3565b60f81b818381518110611d6757634e487b7160e01b600052603260045260246000fd5b60200101906001600160f81b031916908160001a905350611d89600a866123fb565b9450611d1b565b6040518060c001604052806000815260200160006001600160a01b0316815260200160006001600160a01b0316815260200160008152602001600015158152602001606081525090565b828054611de690612452565b90600052602060002090601f016020900481019282611e085760008555611e4e565b82601f10611e2157805160ff1916838001178555611e4e565b82800160010185558215611e4e579182015b82811115611e4e578251825591602001919060010190611e33565b50611e5a929150611e5e565b5090565b5b80821115611e5a5760008155600101611e5f565b600067ffffffffffffffff80841115611e8e57611e8e6124e8565b604051601f8501601f19908116603f01168101908282118183101715611eb657611eb66124e8565b81604052809350858152868686011115611ecf57600080fd5b858560208301376000602087830101525050509392505050565b80356001600160a01b0381168114611f0057600080fd5b919050565b600082601f830112611f15578081fd5b611b0b83833560208501611e73565b600060208284031215611f35578081fd5b611b0b82611ee9565b60008060408385031215611f50578081fd5b611f5983611ee9565b9150611f6760208401611ee9565b90509250929050565b600080600060608486031215611f84578081fd5b611f8d84611ee9565b9250611f9b60208501611ee9565b9150604084013590509250925092565b60008060008060808587031215611fc0578081fd5b611fc985611ee9565b9350611fd760208601611ee9565b925060408501359150606085013567ffffffffffffffff811115611ff9578182fd5b8501601f81018713612009578182fd5b61201887823560208401611e73565b91505092959194509250565b60008060408385031215612036578182fd5b61203f83611ee9565b915060208301358015158114612053578182fd5b809150509250929050565b60008060408385031215612070578182fd5b61207983611ee9565b946020939093013593505050565b600060208284031215612098578081fd5b8135611b0b816124fe565b6000602082840312156120b4578081fd5b8151611b0b816124fe565b6000806000606084860312156120d3578283fd5b833567ffffffffffffffff808211156120ea578485fd5b6120f687838801611f05565b9450602086013593506040860135915080821115612112578283fd5b5061211f86828701611f05565b9150509250925092565b60006020828403121561213a578081fd5b5035919050565b60008060408385031215612153578182fd5b50508035926020909101359150565b6000815180845261217a816020860160208601612426565b601f01601f19169290920160200192915050565b600083516121a0818460208801612426565b8351908301906121b4818360208801612426565b01949350505050565b6001600160a01b0386811682528516602082015260408101849052821515606082015260a0608082018190526000906121f890830184612162565b979650505050505050565b6001600160a01b038581168252841660208201526040810183905260806060820181905260009061223690830184612162565b9695505050505050565b60006020808301818452808551808352604092508286019150828160051b870101848801865b838110156122de57888303603f19018552815180518452878101516001600160a01b03908116898601528782015116878501526060808201519085015260808082015115159085015260a09081015160c0918501829052906122ca81860183612162565b968901969450505090860190600101612266565b509098975050505050505050565b602081526000611b0b6020830184612162565b60208082526032908201527f4552433732313a207472616e7366657220746f206e6f6e20455243373231526560408201527131b2b4bb32b91034b6b83632b6b2b73a32b960711b606082015260800190565b60208082526024908201527f5072696365206d75737420626520657175616c20746f206c697374696e6720706040820152637269636560e01b606082015260800190565b6020808252602e908201527f4552433732313a2063616c6c6572206973206e6f7420746f6b656e206f776e6560408201526d1c881b9bdc88185c1c1c9bdd995960921b606082015260800190565b600082198211156123f6576123f66124bc565b500190565b60008261240a5761240a6124d2565b500490565b600082821015612421576124216124bc565b500390565b60005b83811015612441578181015183820152602001612429565b838111156110dc5750506000910152565b600181811c9082168061246657607f821691505b6020821081141561248757634e487b7160e01b600052602260045260246000fd5b50919050565b60006000198214156124a1576124a16124bc565b5060010190565b6000826124b7576124b76124d2565b500690565b634e487b7160e01b600052601160045260246000fd5b634e487b7160e01b600052601260045260246000fd5b634e487b7160e01b600052604160045260246000fd5b6001600160e01b0319811681146113d357600080fdfea26469706673582212200e8e522211bfa4f585c0b31737579868c4a26acd296b9dd6f7f4b7c9cb9a16ad64736f6c63430008040033",
  "linkReferences": {},
  "deployedLinkReferences": {}
}