{
  "_format": "hh-sol-artifact-1",
  "contractName": "NFTMarketplace",
  "sourceName": "contracts/NFTMarketplace.sol",
  "abi": [
    {
      "inputs": [],
      "stateMutability": "nonpayable",
      "type": "constructor"
    },
    {
      "anonymous": false,
      "inputs": [
        {
          "indexed": true,
          "internalType": "address",
          "name": "owner",
          "type": "address"
        },
        {
          "indexed": true,
          "internalType": "address",
          "name": "approved",
          "type": "address"
        },
        {
          "indexed": true,
          "internalType": "uint256",
          "name": "tokenId",
          "type": "uint256"
        }
      ],
      "name": "Approval",
      "type": "event"
    },
    {
      "anonymous": false,
      "inputs": [
        {
          "indexed": true,
          "internalType": "address",
          "name": "owner",
          "type": "address"
        },
        {
          "indexed": true,
          "internalType": "address",
          "name": "operator",
          "type": "address"
        },
        {
          "indexed": false,
          "internalType": "bool",
          "name": "approved",
          "type": "bool"
        }
      ],
      "name": "ApprovalForAll",
      "type": "event"
    },
    {
      "anonymous": false,
      "inputs": [
        {
          "indexed": true,
          "internalType": "uint256",
          "name": "tokenId",
          "type": "uint256"
        },
        {
          "indexed": false,
          "internalType": "address",
          "name": "seller",
          "type": "address"
        },
        {
          "indexed": false,
          "internalType": "address",
          "name": "owner",
          "type": "address"
        },
        {
          "indexed": false,
          "internalType": "uint256",
          "name": "price",
          "type": "uint256"
        },
        {
          "indexed": false,
          "internalType": "bool",
          "name": "sold",
          "type": "bool"
        },
        {
          "indexed": false,
          "internalType": "string",
          "name": "fileUrl",
          "type": "string"
        }
      ],
      "name": "MarketItemCreated",
      "type": "event"
    },
    {
      "anonymous": false,
      "inputs": [
        {
          "indexed": true,
          "internalType": "address",
          "name": "from",
          "type": "address"
        },
        {
          "indexed": true,
          "internalType": "address",
          "name": "to",
          "type": "address"
        },
        {
          "indexed": true,
          "internalType": "uint256",
          "name": "tokenId",
          "type": "uint256"
        }
      ],
      "name": "Transfer",
      "type": "event"
    },
    {
      "inputs": [
        {
          "internalType": "address",
          "name": "to",
          "type": "address"
        },
        {
          "internalType": "uint256",
          "name": "tokenId",
          "type": "uint256"
        }
      ],
      "name": "approve",
      "outputs": [],
      "stateMutability": "nonpayable",
      "type": "function"
    },
    {
      "inputs": [
        {
          "internalType": "address",
          "name": "owner",
          "type": "address"
        }
      ],
      "name": "balanceOf",
      "outputs": [
        {
          "internalType": "uint256",
          "name": "",
          "type": "uint256"
        }
      ],
      "stateMutability": "view",
      "type": "function"
    },
    {
      "inputs": [
        {
          "internalType": "uint256",
          "name": "tokenId",
          "type": "uint256"
        }
      ],
      "name": "createMarketSale",
      "outputs": [],
      "stateMutability": "payable",
      "type": "function"
    },
    {
      "inputs": [
        {
          "internalType": "string",
          "name": "tokenURI",
          "type": "string"
        },
        {
          "internalType": "uint256",
          "name": "price",
          "type": "uint256"
        },
        {
          "internalType": "string",
          "name": "fileUrl",
          "type": "string"
        }
      ],
      "name": "createToken",
      "outputs": [
        {
          "internalType": "uint256",
          "name": "",
          "type": "uint256"
        }
      ],
      "stateMutability": "payable",
      "type": "function"
    },
    {
      "inputs": [],
      "name": "fetchItemsListed",
      "outputs": [
        {
          "components": [
            {
              "internalType": "uint256",
              "name": "tokenId",
              "type": "uint256"
            },
            {
              "internalType": "address payable",
              "name": "seller",
              "type": "address"
            },
            {
              "internalType": "address payable",
              "name": "owner",
              "type": "address"
            },
            {
              "internalType": "uint256",
              "name": "price",
              "type": "uint256"
            },
            {
              "internalType": "bool",
              "name": "sold",
              "type": "bool"
            },
            {
              "internalType": "string",
              "name": "fileUrl",
              "type": "string"
            }
          ],
          "internalType": "struct NFTMarketplace.MarketItem[]",
          "name": "",
          "type": "tuple[]"
        }
      ],
      "stateMutability": "view",
      "type": "function"
    },
    {
      "inputs": [],
      "name": "fetchMarketItems",
      "outputs": [
        {
          "components": [
            {
              "internalType": "uint256",
              "name": "tokenId",
              "type": "uint256"
            },
            {
              "internalType": "address payable",
              "name": "seller",
              "type": "address"
            },
            {
              "internalType": "address payable",
              "name": "owner",
              "type": "address"
            },
            {
              "internalType": "uint256",
              "name": "price",
              "type": "uint256"
            },
            {
              "internalType": "bool",
              "name": "sold",
              "type": "bool"
            },
            {
              "internalType": "string",
              "name": "fileUrl",
              "type": "string"
            }
          ],
          "internalType": "struct NFTMarketplace.MarketItem[]",
          "name": "",
          "type": "tuple[]"
        }
      ],
      "stateMutability": "view",
      "type": "function"
    },
    {
      "inputs": [],
      "name": "fetchMyNFTs",
      "outputs": [
        {
          "components": [
            {
              "internalType": "uint256",
              "name": "tokenId",
              "type": "uint256"
            },
            {
              "internalType": "address payable",
              "name": "seller",
              "type": "address"
            },
            {
              "internalType": "address payable",
              "name": "owner",
              "type": "address"
            },
            {
              "internalType": "uint256",
              "name": "price",
              "type": "uint256"
            },
            {
              "internalType": "bool",
              "name": "sold",
              "type": "bool"
            },
            {
              "internalType": "string",
              "name": "fileUrl",
              "type": "string"
            }
          ],
          "internalType": "struct NFTMarketplace.MarketItem[]",
          "name": "",
          "type": "tuple[]"
        }
      ],
      "stateMutability": "view",
      "type": "function"
    },
    {
      "inputs": [
        {
          "internalType": "uint256",
          "name": "tokenId",
          "type": "uint256"
        }
      ],
      "name": "getApproved",
      "outputs": [
        {
          "internalType": "address",
          "name": "",
          "type": "address"
        }
      ],
      "stateMutability": "view",
      "type": "function"
    },
    {
      "inputs": [],
      "name": "getListingPrice",
      "outputs": [
        {
          "internalType": "uint256",
          "name": "",
          "type": "uint256"
        }
      ],
      "stateMutability": "view",
      "type": "function"
    },
    {
      "inputs": [
        {
          "internalType": "address",
          "name": "owner",
          "type": "address"
        },
        {
          "internalType": "address",
          "name": "operator",
          "type": "address"
        }
      ],
      "name": "isApprovedForAll",
      "outputs": [
        {
          "internalType": "bool",
          "name": "",
          "type": "bool"
        }
      ],
      "stateMutability": "view",
      "type": "function"
    },
    {
      "inputs": [],
      "name": "name",
      "outputs": [
        {
          "internalType": "string",
          "name": "",
          "type": "string"
        }
      ],
      "stateMutability": "view",
      "type": "function"
    },
    {
      "inputs": [
        {
          "internalType": "uint256",
          "name": "tokenId",
          "type": "uint256"
        }
      ],
      "name": "ownerOf",
      "outputs": [
        {
          "internalType": "address",
          "name": "",
          "type": "address"
        }
      ],
      "stateMutability": "view",
      "type": "function"
    },
    {
      "inputs": [
        {
          "internalType": "uint256",
          "name": "tokenId",
          "type": "uint256"
        },
        {
          "internalType": "uint256",
          "name": "price",
          "type": "uint256"
        }
      ],
      "name": "resellToken",
      "outputs": [],
      "stateMutability": "payable",
      "type": "function"
    },
    {
      "inputs": [
        {
          "internalType": "address",
          "name": "from",
          "type": "address"
        },
        {
          "internalType": "address",
          "name": "to",
          "type": "address"
        },
        {
          "internalType": "uint256",
          "name": "tokenId",
          "type": "uint256"
        }
      ],
      "name": "safeTransferFrom",
      "outputs": [],
      "stateMutability": "nonpayable",
      "type": "function"
    },
    {
      "inputs": [
        {
          "internalType": "address",
          "name": "from",
          "type": "address"
        },
        {
          "internalType": "address",
          "name": "to",
          "type": "address"
        },
        {
          "internalType": "uint256",
          "name": "tokenId",
          "type": "uint256"
        },
        {
          "internalType": "bytes",
          "name": "_data",
          "type": "bytes"
        }
      ],
      "name": "safeTransferFrom",
      "outputs": [],
      "stateMutability": "nonpayable",
      "type": "function"
    },
    {
      "inputs": [
        {
          "internalType": "address",
          "name": "operator",
          "type": "address"
        },
        {
          "internalType": "bool",
          "name": "approved",
          "type": "bool"
        }
      ],
      "name": "setApprovalForAll",
      "outputs": [],
      "stateMutability": "nonpayable",
      "type": "function"
    },
    {
      "inputs": [
        {
          "internalType": "bytes4",
          "name": "interfaceId",
          "type": "bytes4"
        }
      ],
      "name": "supportsInterface",
      "outputs": [
        {
          "internalType": "bool",
          "name": "",
          "type": "bool"
        }
      ],
      "stateMutability": "view",
      "type": "function"
    },
    {
      "inputs": [],
      "name": "symbol",
      "outputs": [
        {
          "internalType": "string",
          "name": "",
          "type": "string"
        }
      ],
      "stateMutability": "view",
      "type": "function"
    },
    {
      "inputs": [
        {
          "internalType": "uint256",
          "name": "tokenId",
          "type": "uint256"
        }
      ],
      "name": "tokenURI",
      "outputs": [
        {
          "internalType": "string",
          "name": "",
          "type": "string"
        }
      ],
      "stateMutability": "view",
      "type": "function"
    },
    {
      "inputs": [
        {
          "internalType": "address",
          "name": "from",
          "type": "address"
        },
        {
          "internalType": "address",
          "name": "to",
          "type": "address"
        },
        {
          "internalType": "uint256",
          "name": "tokenId",
          "type": "uint256"
        }
      ],
      "name": "transferFrom",
      "outputs": [],
      "stateMutability": "nonpayable",
      "type": "function"
    },
    {
      "inputs": [
        {
          "internalType": "uint256",
          "name": "_listingPrice",
          "type": "uint256"
        }
      ],
      "name": "updateListingPrice",
      "outputs": [],
      "stateMutability": "payable",
      "type": "function"
    }
  ],
  "bytecode": "0x60806040526611c37937e080006009553480156200001c57600080fd5b506040805180820182526007815266169bdbdb53919560ca1b6020808301918252835180850190945260048452631693919560e21b908401528151919291620000689160009162000099565b5080516200007e90600190602084019062000099565b5050600a80546001600160a01b03191633179055506200017c565b828054620000a7906200013f565b90600052602060002090601f016020900481019282620000cb576000855562000116565b82601f10620000e657805160ff191683800117855562000116565b8280016001018555821562000116579182015b8281111562000116578251825591602001919060010190620000f9565b506200012492915062000128565b5090565b5b8082111562000124576000815560010162000129565b600181811c908216806200015457607f821691505b602082108114156200017657634e487b7160e01b600052602260045260246000fd5b50919050565b612656806200018c6000396000f3fe60806040526004361061012a5760003560e01c80636352211e116100ab578063b88d4fde1161006f578063b88d4fde14610313578063be9af53614610333578063c6c9b5b114610346578063c87b56dd14610359578063e219fc7514610379578063e985e9c51461038c57600080fd5b80636352211e1461028b57806370a08231146102ab57806395d89b41146102cb578063a22cb465146102e0578063ae677aa31461030057600080fd5b806312e85585116100f257806312e8558514610202578063202e37401461022157806323b872dd1461023657806342842e0e1461025657806345f8fa801461027657600080fd5b806301ffc9a71461012f57806306fdde0314610164578063081812fc14610186578063095ea7b3146101be5780630f08efe0146101e0575b600080fd5b34801561013b57600080fd5b5061014f61014a36600461218d565b6103d5565b60405190151581526020015b60405180910390f35b34801561017057600080fd5b50610179610427565b60405161015b91906123f2565b34801561019257600080fd5b506101a66101a136600461222f565b6104b9565b6040516001600160a01b03909116815260200161015b565b3480156101ca57600080fd5b506101de6101d9366004612164565b610546565b005b3480156101ec57600080fd5b506101f561065c565b60405161015b9190612346565b34801561020e57600080fd5b506009545b60405190815260200161015b565b34801561022d57600080fd5b506101f5610889565b34801561024257600080fd5b506101de610251366004612076565b610af4565b34801561026257600080fd5b506101de610271366004612076565b610b25565b34801561028257600080fd5b506101f5610b40565b34801561029757600080fd5b506101a66102a636600461222f565b610dab565b3480156102b757600080fd5b506102136102c636600461202a565b610e22565b3480156102d757600080fd5b50610179610ea9565b3480156102ec57600080fd5b506101de6102fb36600461212a565b610eb8565b6101de61030e36600461222f565b610ec7565b34801561031f57600080fd5b506101de61032e3660046120b1565b610f3f565b6101de61034136600461222f565b610f77565b6102136103543660046121c5565b6110e6565b34801561036557600080fd5b5061017961037436600461222f565b61112a565b6101de610387366004612247565b611299565b34801561039857600080fd5b5061014f6103a7366004612044565b6001600160a01b03918216600090815260056020908152604080832093909416825291909152205460ff1690565b60006001600160e01b031982166380ac58cd60e01b148061040657506001600160e01b03198216635b5e139f60e01b145b8061042157506301ffc9a760e01b6001600160e01b03198316145b92915050565b6060600080546104369061255b565b80601f01602080910402602001604051908101604052809291908181526020018280546104629061255b565b80156104af5780601f10610484576101008083540402835291602001916104af565b820191906000526020600020905b81548152906001019060200180831161049257829003601f168201915b5050505050905090565b60006104c482611391565b61052a5760405162461bcd60e51b815260206004820152602c60248201527f4552433732313a20617070726f76656420717565727920666f72206e6f6e657860448201526b34b9ba32b73a103a37b5b2b760a11b60648201526084015b60405180910390fd5b506000908152600460205260409020546001600160a01b031690565b600061055182610dab565b9050806001600160a01b0316836001600160a01b031614156105bf5760405162461bcd60e51b815260206004820152602160248201527f4552433732313a20617070726f76616c20746f2063757272656e74206f776e656044820152603960f91b6064820152608401610521565b336001600160a01b03821614806105db57506105db81336103a7565b61064d5760405162461bcd60e51b815260206004820152603860248201527f4552433732313a20617070726f76652063616c6c6572206973206e6f74206f7760448201527f6e6572206e6f7220617070726f76656420666f7220616c6c00000000000000006064820152608401610521565b61065783836113ae565b505050565b6060600061066960075490565b9050600061067660085490565b6007546106839190612518565b90506000808267ffffffffffffffff8111156106af57634e487b7160e01b600052604160045260246000fd5b6040519080825280602002602001820160405280156106e857816020015b6106d5611e96565b8152602001906001900390816106cd5790505b50905060005b848110156108805730600b60006107068460016124ec565b81526020810191909152604001600020600201546001600160a01b0316141561086e5760006107368260016124ec565b6000818152600b6020908152604091829020825160c0810184528154815260018201546001600160a01b039081169382019390935260028201549092169282019290925260038201546060820152600482015460ff161515608082015260058201805493945091929091839160a0840191906107b19061255b565b80601f01602080910402602001604051908101604052809291908181526020018280546107dd9061255b565b801561082a5780601f106107ff5761010080835404028352916020019161082a565b820191906000526020600020905b81548152906001019060200180831161080d57829003601f168201915b50505050508152505084868151811061085357634e487b7160e01b600052603260045260246000fd5b60209081029190910101526108696001866124ec565b945050505b8061087881612596565b9150506106ee565b50949350505050565b6060600061089660075490565b905060008060005b838110156108f95733600b60006108b68460016124ec565b81526020810191909152604001600020600201546001600160a01b031614156108e7576108e46001846124ec565b92505b806108f181612596565b91505061089e565b5060008267ffffffffffffffff81111561092357634e487b7160e01b600052604160045260246000fd5b60405190808252806020026020018201604052801561095c57816020015b610949611e96565b8152602001906001900390816109415790505b50905060005b848110156108805733600b600061097a8460016124ec565b81526020810191909152604001600020600201546001600160a01b03161415610ae25760006109aa8260016124ec565b6000818152600b6020908152604091829020825160c0810184528154815260018201546001600160a01b039081169382019390935260028201549092169282019290925260038201546060820152600482015460ff161515608082015260058201805493945091929091839160a084019190610a259061255b565b80601f0160208091040260200160405190810160405280929190818152602001828054610a519061255b565b8015610a9e5780601f10610a7357610100808354040283529160200191610a9e565b820191906000526020600020905b815481529060010190602001808311610a8157829003601f168201915b505050505081525050848681518110610ac757634e487b7160e01b600052603260045260246000fd5b6020908102919091010152610add6001866124ec565b945050505b80610aec81612596565b915050610962565b610afe338261141c565b610b1a5760405162461bcd60e51b81526004016105219061249b565b610657838383611505565b61065783838360405180602001604052806000815250610f3f565b60606000610b4d60075490565b905060008060005b83811015610bb05733600b6000610b6d8460016124ec565b81526020810191909152604001600020600101546001600160a01b03161415610b9e57610b9b6001846124ec565b92505b80610ba881612596565b915050610b55565b5060008267ffffffffffffffff811115610bda57634e487b7160e01b600052604160045260246000fd5b604051908082528060200260200182016040528015610c1357816020015b610c00611e96565b815260200190600190039081610bf85790505b50905060005b848110156108805733600b6000610c318460016124ec565b81526020810191909152604001600020600101546001600160a01b03161415610d99576000610c618260016124ec565b6000818152600b6020908152604091829020825160c0810184528154815260018201546001600160a01b039081169382019390935260028201549092169282019290925260038201546060820152600482015460ff161515608082015260058201805493945091929091839160a084019190610cdc9061255b565b80601f0160208091040260200160405190810160405280929190818152602001828054610d089061255b565b8015610d555780601f10610d2a57610100808354040283529160200191610d55565b820191906000526020600020905b815481529060010190602001808311610d3857829003601f168201915b505050505081525050848681518110610d7e57634e487b7160e01b600052603260045260246000fd5b6020908102919091010152610d946001866124ec565b945050505b80610da381612596565b915050610c19565b6000818152600260205260408120546001600160a01b0316806104215760405162461bcd60e51b815260206004820152602960248201527f4552433732313a206f776e657220717565727920666f72206e6f6e657869737460448201526832b73a103a37b5b2b760b91b6064820152608401610521565b60006001600160a01b038216610e8d5760405162461bcd60e51b815260206004820152602a60248201527f4552433732313a2062616c616e636520717565727920666f7220746865207a65604482015269726f206164647265737360b01b6064820152608401610521565b506001600160a01b031660009081526003602052604090205490565b6060600180546104369061255b565b610ec33383836116a1565b5050565b600a546001600160a01b03163314610f3a5760405162461bcd60e51b815260206004820152603060248201527f4f6e6c79206d61726b6574706c616365206f776e65722063616e20757064617460448201526f32903634b9ba34b73390383934b1b29760811b6064820152608401610521565b600955565b610f49338361141c565b610f655760405162461bcd60e51b81526004016105219061249b565b610f7184848484611770565b50505050565b6000818152600b6020526040902060038101546001909101546001600160a01b0316610fa382826117a3565b81341461101a576040805162461bcd60e51b81526020600482015260248101919091527f506c65617365207375626d6974207468652061736b696e67207072696365206960448201527f6e206f7264657220746f20636f6d706c657465207468652070757263686173656064820152608401610521565b6000838152600b602052604090206002810180546001600160a01b0319908116331790915560048201805460ff1916600190811790915590910180549091169055611069600880546001019055565b611074303385611505565b600a546009546040516001600160a01b039092169181156108fc0291906000818181858888f193505050501580156110b0573d6000803e3d6000fd5b506040516001600160a01b038216903480156108fc02916000818181858888f19350505050158015610f71573d6000803e3d6000fd5b60006110f6600780546001019055565b600061110160075490565b905061110d33826117f2565b6111178186611925565b6111228185856119b0565b949350505050565b606061113582611391565b61119b5760405162461bcd60e51b815260206004820152603160248201527f45524337323155524953746f726167653a2055524920717565727920666f72206044820152703737b732bc34b9ba32b73a103a37b5b2b760791b6064820152608401610521565b600082815260066020526040812080546111b49061255b565b80601f01602080910402602001604051908101604052809291908181526020018280546111e09061255b565b801561122d5780601f106112025761010080835404028352916020019161122d565b820191906000526020600020905b81548152906001019060200180831161121057829003601f168201915b50505050509050600061124b60408051602081019091526000815290565b905080516000141561125e575092915050565b815115611290578082604051602001611278929190612294565b60405160208183030381529060405292505050919050565b61112284611b1f565b6000828152600b60205260409020600201546001600160a01b031633146113155760405162461bcd60e51b815260206004820152602a60248201527f4f6e6c79206974656d206f776e65722063616e20706572666f726d20746869736044820152691037b832b930ba34b7b760b11b6064820152608401610521565b60095434146113365760405162461bcd60e51b815260040161052190612457565b6000828152600b6020526040902060048101805460ff19169055600381018290556001810180546001600160a01b0319908116331790915560029091018054909116301790556113866008611bf7565b610ec3333084611505565b6000908152600260205260409020546001600160a01b0316151590565b600081815260046020526040902080546001600160a01b0319166001600160a01b03841690811790915581906113e382610dab565b6001600160a01b03167f8c5be1e5ebec7d5bd14f71427d1e84f3dd0314c0f7b2291e5b200ac8c7c3b92560405160405180910390a45050565b600061142782611391565b6114885760405162461bcd60e51b815260206004820152602c60248201527f4552433732313a206f70657261746f7220717565727920666f72206e6f6e657860448201526b34b9ba32b73a103a37b5b2b760a11b6064820152608401610521565b600061149383610dab565b9050806001600160a01b0316846001600160a01b031614806114da57506001600160a01b0380821660009081526005602090815260408083209388168352929052205460ff165b806111225750836001600160a01b03166114f3846104b9565b6001600160a01b031614949350505050565b826001600160a01b031661151882610dab565b6001600160a01b03161461157c5760405162461bcd60e51b815260206004820152602560248201527f4552433732313a207472616e736665722066726f6d20696e636f72726563742060448201526437bbb732b960d91b6064820152608401610521565b6001600160a01b0382166115de5760405162461bcd60e51b8152602060048201526024808201527f4552433732313a207472616e7366657220746f20746865207a65726f206164646044820152637265737360e01b6064820152608401610521565b6115e96000826113ae565b6001600160a01b0383166000908152600360205260408120805460019290611612908490612518565b90915550506001600160a01b03821660009081526003602052604081208054600192906116409084906124ec565b909155505060008181526002602052604080822080546001600160a01b0319166001600160a01b0386811691821790925591518493918716917fddf252ad1be2c89b69c2b068fc378daa952ba7f163c4a11628f55a4df523b3ef91a4505050565b816001600160a01b0316836001600160a01b031614156117035760405162461bcd60e51b815260206004820152601960248201527f4552433732313a20617070726f766520746f2063616c6c6572000000000000006044820152606401610521565b6001600160a01b03838116600081815260056020908152604080832094871680845294825291829020805460ff191686151590811790915591519182527f17307eab39ab6107e8899845ad3d59bd9653f200f220920489ca2b5937696c31910160405180910390a3505050565b61177b848484611505565b61178784848484611c4e565b610f715760405162461bcd60e51b815260040161052190612405565b604051602481018390526001600160a01b0382166044820152610ec39060640160408051601f198184030181529190526020810180516001600160e01b031663163ae18360e21b179052611d5b565b6001600160a01b0382166118485760405162461bcd60e51b815260206004820181905260248201527f4552433732313a206d696e7420746f20746865207a65726f20616464726573736044820152606401610521565b61185181611391565b1561189e5760405162461bcd60e51b815260206004820152601c60248201527f4552433732313a20746f6b656e20616c7265616479206d696e746564000000006044820152606401610521565b6001600160a01b03821660009081526003602052604081208054600192906118c79084906124ec565b909155505060008181526002602052604080822080546001600160a01b0319166001600160a01b03861690811790915590518392907fddf252ad1be2c89b69c2b068fc378daa952ba7f163c4a11628f55a4df523b3ef908290a45050565b61192e82611391565b6119915760405162461bcd60e51b815260206004820152602e60248201527f45524337323155524953746f726167653a2055524920736574206f66206e6f6e60448201526d32bc34b9ba32b73a103a37b5b2b760911b6064820152608401610521565b6000828152600660209081526040909120825161065792840190611ee0565b60008211611a005760405162461bcd60e51b815260206004820152601c60248201527f5072696365206d757374206265206174206c65617374203120776569000000006044820152606401610521565b6009543414611a215760405162461bcd60e51b815260040161052190612457565b6040805160c081018252848152336020808301918252308385019081526060840187815260006080860181815260a087018981528b8352600b8652979091208651815594516001860180546001600160a01b03199081166001600160a01b039384161790915593516002870180549095169116179092555160038401555160048301805460ff19169115159190911790559251805192939192611aca9260058501920190611ee0565b50905050611ad9333085611505565b827fddaeb01fb1ddce9789e64660541353c5a90fdd3e87ad074757173128396df021333085600086604051611b129594939291906122c3565b60405180910390a2505050565b6060611b2a82611391565b611b8e5760405162461bcd60e51b815260206004820152602f60248201527f4552433732314d657461646174613a2055524920717565727920666f72206e6f60448201526e3732bc34b9ba32b73a103a37b5b2b760891b6064820152608401610521565b6000611ba560408051602081019091526000815290565b90506000815111611bc55760405180602001604052806000815250611bf0565b80611bcf84611d7c565b604051602001611be0929190612294565b6040516020818303038152906040525b9392505050565b805480611c465760405162461bcd60e51b815260206004820152601b60248201527f436f756e7465723a2064656372656d656e74206f766572666c6f7700000000006044820152606401610521565b600019019055565b60006001600160a01b0384163b15611d5057604051630a85bd0160e11b81526001600160a01b0385169063150b7a0290611c92903390899088908890600401612309565b602060405180830381600087803b158015611cac57600080fd5b505af1925050508015611cdc575060408051601f3d908101601f19168201909252611cd9918101906121a9565b60015b611d36573d808015611d0a576040519150601f19603f3d011682016040523d82523d6000602084013e611d0f565b606091505b508051611d2e5760405162461bcd60e51b815260040161052190612405565b805181602001fd5b6001600160e01b031916630a85bd0160e11b149050611122565b506001949350505050565b80516a636f6e736f6c652e6c6f67602083016000808483855afa5050505050565b606081611da05750506040805180820190915260018152600360fc1b602082015290565b8160005b8115611dca5780611db481612596565b9150611dc39050600a83612504565b9150611da4565b60008167ffffffffffffffff811115611df357634e487b7160e01b600052604160045260246000fd5b6040519080825280601f01601f191660200182016040528015611e1d576020820181803683370190505b5090505b841561112257611e32600183612518565b9150611e3f600a866125b1565b611e4a9060306124ec565b60f81b818381518110611e6d57634e487b7160e01b600052603260045260246000fd5b60200101906001600160f81b031916908160001a905350611e8f600a86612504565b9450611e21565b6040518060c001604052806000815260200160006001600160a01b0316815260200160006001600160a01b0316815260200160008152602001600015158152602001606081525090565b828054611eec9061255b565b90600052602060002090601f016020900481019282611f0e5760008555611f54565b82601f10611f2757805160ff1916838001178555611f54565b82800160010185558215611f54579182015b82811115611f54578251825591602001919060010190611f39565b50611f60929150611f64565b5090565b5b80821115611f605760008155600101611f65565b600067ffffffffffffffff80841115611f9457611f946125f1565b604051601f8501601f19908116603f01168101908282118183101715611fbc57611fbc6125f1565b81604052809350858152868686011115611fd557600080fd5b858560208301376000602087830101525050509392505050565b80356001600160a01b038116811461200657600080fd5b919050565b600082601f83011261201b578081fd5b611bf083833560208501611f79565b60006020828403121561203b578081fd5b611bf082611fef565b60008060408385031215612056578081fd5b61205f83611fef565b915061206d60208401611fef565b90509250929050565b60008060006060848603121561208a578081fd5b61209384611fef565b92506120a160208501611fef565b9150604084013590509250925092565b600080600080608085870312156120c6578081fd5b6120cf85611fef565b93506120dd60208601611fef565b925060408501359150606085013567ffffffffffffffff8111156120ff578182fd5b8501601f8101871361210f578182fd5b61211e87823560208401611f79565b91505092959194509250565b6000806040838503121561213c578182fd5b61214583611fef565b915060208301358015158114612159578182fd5b809150509250929050565b60008060408385031215612176578182fd5b61217f83611fef565b946020939093013593505050565b60006020828403121561219e578081fd5b8135611bf081612607565b6000602082840312156121ba578081fd5b8151611bf081612607565b6000806000606084860312156121d9578283fd5b833567ffffffffffffffff808211156121f0578485fd5b6121fc8783880161200b565b9450602086013593506040860135915080821115612218578283fd5b506122258682870161200b565b9150509250925092565b600060208284031215612240578081fd5b5035919050565b60008060408385031215612259578182fd5b50508035926020909101359150565b6000815180845261228081602086016020860161252f565b601f01601f19169290920160200192915050565b600083516122a681846020880161252f565b8351908301906122ba81836020880161252f565b01949350505050565b6001600160a01b0386811682528516602082015260408101849052821515606082015260a0608082018190526000906122fe90830184612268565b979650505050505050565b6001600160a01b038581168252841660208201526040810183905260806060820181905260009061233c90830184612268565b9695505050505050565b60006020808301818452808551808352604092508286019150828160051b870101848801865b838110156123e457888303603f19018552815180518452878101516001600160a01b03908116898601528782015116878501526060808201519085015260808082015115159085015260a09081015160c0918501829052906123d081860183612268565b96890196945050509086019060010161236c565b509098975050505050505050565b602081526000611bf06020830184612268565b60208082526032908201527f4552433732313a207472616e7366657220746f206e6f6e20455243373231526560408201527131b2b4bb32b91034b6b83632b6b2b73a32b960711b606082015260800190565b60208082526024908201527f5072696365206d75737420626520657175616c20746f206c697374696e6720706040820152637269636560e01b606082015260800190565b60208082526031908201527f4552433732313a207472616e736665722063616c6c6572206973206e6f74206f6040820152701ddb995c881b9bdc88185c1c1c9bdd9959607a1b606082015260800190565b600082198211156124ff576124ff6125c5565b500190565b600082612513576125136125db565b500490565b60008282101561252a5761252a6125c5565b500390565b60005b8381101561254a578181015183820152602001612532565b83811115610f715750506000910152565b600181811c9082168061256f57607f821691505b6020821081141561259057634e487b7160e01b600052602260045260246000fd5b50919050565b60006000198214156125aa576125aa6125c5565b5060010190565b6000826125c0576125c06125db565b500690565b634e487b7160e01b600052601160045260246000fd5b634e487b7160e01b600052601260045260246000fd5b634e487b7160e01b600052604160045260246000fd5b6001600160e01b03198116811461261d57600080fd5b5056fea264697066735822122003dc3f9fa4cd45bc48468402413bcbdcabacb2f714f498242abcd62bf184469464736f6c63430008040033",
  "linkReferences": {},
  "deployedLinkReferences": {}
}