{
  "_format": "hh-sol-artifact-1",
  "contractName": "Doodles",
  "sourceName": "contracts/doodle.sol",
  "abi": [
    {
      "inputs": [],
      "stateMutability": "nonpayable",
      "type": "constructor"
    },
    {
      "anonymous": false,
      "inputs": [
        {
          "indexed": true,
          "internalType": "address",
          "name": "owner",
          "type": "address"
        },
        {
          "indexed": true,
          "internalType": "address",
          "name": "approved",
          "type": "address"
        },
        {
          "indexed": true,
          "internalType": "uint256",
          "name": "tokenId",
          "type": "uint256"
        }
      ],
      "name": "Approval",
      "type": "event"
    },
    {
      "anonymous": false,
      "inputs": [
        {
          "indexed": true,
          "internalType": "address",
          "name": "owner",
          "type": "address"
        },
        {
          "indexed": true,
          "internalType": "address",
          "name": "operator",
          "type": "address"
        },
        {
          "indexed": false,
          "internalType": "bool",
          "name": "approved",
          "type": "bool"
        }
      ],
      "name": "ApprovalForAll",
      "type": "event"
    },
    {
      "anonymous": false,
      "inputs": [
        {
          "indexed": true,
          "internalType": "address",
          "name": "previousOwner",
          "type": "address"
        },
        {
          "indexed": true,
          "internalType": "address",
          "name": "newOwner",
          "type": "address"
        }
      ],
      "name": "OwnershipTransferred",
      "type": "event"
    },
    {
      "anonymous": false,
      "inputs": [
        {
          "indexed": true,
          "internalType": "address",
          "name": "from",
          "type": "address"
        },
        {
          "indexed": true,
          "internalType": "address",
          "name": "to",
          "type": "address"
        },
        {
          "indexed": true,
          "internalType": "uint256",
          "name": "tokenId",
          "type": "uint256"
        }
      ],
      "name": "Transfer",
      "type": "event"
    },
    {
      "inputs": [],
      "name": "MAX_PUBLIC_MINT",
      "outputs": [
        {
          "internalType": "uint256",
          "name": "",
          "type": "uint256"
        }
      ],
      "stateMutability": "view",
      "type": "function"
    },
    {
      "inputs": [],
      "name": "MAX_SUPPLY",
      "outputs": [
        {
          "internalType": "uint256",
          "name": "",
          "type": "uint256"
        }
      ],
      "stateMutability": "view",
      "type": "function"
    },
    {
      "inputs": [],
      "name": "PRICE_PER_TOKEN",
      "outputs": [
        {
          "internalType": "uint256",
          "name": "",
          "type": "uint256"
        }
      ],
      "stateMutability": "view",
      "type": "function"
    },
    {
      "inputs": [],
      "name": "PROVENANCE",
      "outputs": [
        {
          "internalType": "string",
          "name": "",
          "type": "string"
        }
      ],
      "stateMutability": "view",
      "type": "function"
    },
    {
      "inputs": [
        {
          "internalType": "address",
          "name": "to",
          "type": "address"
        },
        {
          "internalType": "uint256",
          "name": "tokenId",
          "type": "uint256"
        }
      ],
      "name": "approve",
      "outputs": [],
      "stateMutability": "nonpayable",
      "type": "function"
    },
    {
      "inputs": [
        {
          "internalType": "address",
          "name": "owner",
          "type": "address"
        }
      ],
      "name": "balanceOf",
      "outputs": [
        {
          "internalType": "uint256",
          "name": "",
          "type": "uint256"
        }
      ],
      "stateMutability": "view",
      "type": "function"
    },
    {
      "inputs": [
        {
          "internalType": "uint256",
          "name": "tokenId",
          "type": "uint256"
        }
      ],
      "name": "getApproved",
      "outputs": [
        {
          "internalType": "address",
          "name": "",
          "type": "address"
        }
      ],
      "stateMutability": "view",
      "type": "function"
    },
    {
      "inputs": [],
      "name": "isAllowListActive",
      "outputs": [
        {
          "internalType": "bool",
          "name": "",
          "type": "bool"
        }
      ],
      "stateMutability": "view",
      "type": "function"
    },
    {
      "inputs": [
        {
          "internalType": "address",
          "name": "owner",
          "type": "address"
        },
        {
          "internalType": "address",
          "name": "operator",
          "type": "address"
        }
      ],
      "name": "isApprovedForAll",
      "outputs": [
        {
          "internalType": "bool",
          "name": "",
          "type": "bool"
        }
      ],
      "stateMutability": "view",
      "type": "function"
    },
    {
      "inputs": [
        {
          "internalType": "uint256",
          "name": "numberOfTokens",
          "type": "uint256"
        }
      ],
      "name": "mint",
      "outputs": [],
      "stateMutability": "payable",
      "type": "function"
    },
    {
      "inputs": [
        {
          "internalType": "uint8",
          "name": "numberOfTokens",
          "type": "uint8"
        }
      ],
      "name": "mintAllowList",
      "outputs": [],
      "stateMutability": "payable",
      "type": "function"
    },
    {
      "inputs": [],
      "name": "name",
      "outputs": [
        {
          "internalType": "string",
          "name": "",
          "type": "string"
        }
      ],
      "stateMutability": "view",
      "type": "function"
    },
    {
      "inputs": [
        {
          "internalType": "address",
          "name": "addr",
          "type": "address"
        }
      ],
      "name": "numAvailableToMint",
      "outputs": [
        {
          "internalType": "uint8",
          "name": "",
          "type": "uint8"
        }
      ],
      "stateMutability": "view",
      "type": "function"
    },
    {
      "inputs": [],
      "name": "owner",
      "outputs": [
        {
          "internalType": "address",
          "name": "",
          "type": "address"
        }
      ],
      "stateMutability": "view",
      "type": "function"
    },
    {
      "inputs": [
        {
          "internalType": "uint256",
          "name": "tokenId",
          "type": "uint256"
        }
      ],
      "name": "ownerOf",
      "outputs": [
        {
          "internalType": "address",
          "name": "",
          "type": "address"
        }
      ],
      "stateMutability": "view",
      "type": "function"
    },
    {
      "inputs": [],
      "name": "renounceOwnership",
      "outputs": [],
      "stateMutability": "nonpayable",
      "type": "function"
    },
    {
      "inputs": [
        {
          "internalType": "uint256",
          "name": "n",
          "type": "uint256"
        }
      ],
      "name": "reserve",
      "outputs": [],
      "stateMutability": "nonpayable",
      "type": "function"
    },
    {
      "inputs": [
        {
          "internalType": "address",
          "name": "from",
          "type": "address"
        },
        {
          "internalType": "address",
          "name": "to",
          "type": "address"
        },
        {
          "internalType": "uint256",
          "name": "tokenId",
          "type": "uint256"
        }
      ],
      "name": "safeTransferFrom",
      "outputs": [],
      "stateMutability": "nonpayable",
      "type": "function"
    },
    {
      "inputs": [
        {
          "internalType": "address",
          "name": "from",
          "type": "address"
        },
        {
          "internalType": "address",
          "name": "to",
          "type": "address"
        },
        {
          "internalType": "uint256",
          "name": "tokenId",
          "type": "uint256"
        },
        {
          "internalType": "bytes",
          "name": "_data",
          "type": "bytes"
        }
      ],
      "name": "safeTransferFrom",
      "outputs": [],
      "stateMutability": "nonpayable",
      "type": "function"
    },
    {
      "inputs": [],
      "name": "saleIsActive",
      "outputs": [
        {
          "internalType": "bool",
          "name": "",
          "type": "bool"
        }
      ],
      "stateMutability": "view",
      "type": "function"
    },
    {
      "inputs": [
        {
          "internalType": "address[]",
          "name": "addresses",
          "type": "address[]"
        },
        {
          "internalType": "uint8",
          "name": "numAllowedToMint",
          "type": "uint8"
        }
      ],
      "name": "setAllowList",
      "outputs": [],
      "stateMutability": "nonpayable",
      "type": "function"
    },
    {
      "inputs": [
        {
          "internalType": "address",
          "name": "operator",
          "type": "address"
        },
        {
          "internalType": "bool",
          "name": "approved",
          "type": "bool"
        }
      ],
      "name": "setApprovalForAll",
      "outputs": [],
      "stateMutability": "nonpayable",
      "type": "function"
    },
    {
      "inputs": [
        {
          "internalType": "string",
          "name": "baseURI_",
          "type": "string"
        }
      ],
      "name": "setBaseURI",
      "outputs": [],
      "stateMutability": "nonpayable",
      "type": "function"
    },
    {
      "inputs": [
        {
          "internalType": "bool",
          "name": "_isAllowListActive",
          "type": "bool"
        }
      ],
      "name": "setIsAllowListActive",
      "outputs": [],
      "stateMutability": "nonpayable",
      "type": "function"
    },
    {
      "inputs": [
        {
          "internalType": "string",
          "name": "provenance",
          "type": "string"
        }
      ],
      "name": "setProvenance",
      "outputs": [],
      "stateMutability": "nonpayable",
      "type": "function"
    },
    {
      "inputs": [
        {
          "internalType": "bool",
          "name": "newState",
          "type": "bool"
        }
      ],
      "name": "setSaleState",
      "outputs": [],
      "stateMutability": "nonpayable",
      "type": "function"
    },
    {
      "inputs": [
        {
          "internalType": "bytes4",
          "name": "interfaceId",
          "type": "bytes4"
        }
      ],
      "name": "supportsInterface",
      "outputs": [
        {
          "internalType": "bool",
          "name": "",
          "type": "bool"
        }
      ],
      "stateMutability": "view",
      "type": "function"
    },
    {
      "inputs": [],
      "name": "symbol",
      "outputs": [
        {
          "internalType": "string",
          "name": "",
          "type": "string"
        }
      ],
      "stateMutability": "view",
      "type": "function"
    },
    {
      "inputs": [
        {
          "internalType": "uint256",
          "name": "index",
          "type": "uint256"
        }
      ],
      "name": "tokenByIndex",
      "outputs": [
        {
          "internalType": "uint256",
          "name": "",
          "type": "uint256"
        }
      ],
      "stateMutability": "view",
      "type": "function"
    },
    {
      "inputs": [
        {
          "internalType": "address",
          "name": "owner",
          "type": "address"
        },
        {
          "internalType": "uint256",
          "name": "index",
          "type": "uint256"
        }
      ],
      "name": "tokenOfOwnerByIndex",
      "outputs": [
        {
          "internalType": "uint256",
          "name": "",
          "type": "uint256"
        }
      ],
      "stateMutability": "view",
      "type": "function"
    },
    {
      "inputs": [
        {
          "internalType": "uint256",
          "name": "tokenId",
          "type": "uint256"
        }
      ],
      "name": "tokenURI",
      "outputs": [
        {
          "internalType": "string",
          "name": "",
          "type": "string"
        }
      ],
      "stateMutability": "view",
      "type": "function"
    },
    {
      "inputs": [],
      "name": "totalSupply",
      "outputs": [
        {
          "internalType": "uint256",
          "name": "",
          "type": "uint256"
        }
      ],
      "stateMutability": "view",
      "type": "function"
    },
    {
      "inputs": [
        {
          "internalType": "address",
          "name": "from",
          "type": "address"
        },
        {
          "internalType": "address",
          "name": "to",
          "type": "address"
        },
        {
          "internalType": "uint256",
          "name": "tokenId",
          "type": "uint256"
        }
      ],
      "name": "transferFrom",
      "outputs": [],
      "stateMutability": "nonpayable",
      "type": "function"
    },
    {
      "inputs": [
        {
          "internalType": "address",
          "name": "newOwner",
          "type": "address"
        }
      ],
      "name": "transferOwnership",
      "outputs": [],
      "stateMutability": "nonpayable",
      "type": "function"
    },
    {
      "inputs": [],
      "name": "withdraw",
      "outputs": [],
      "stateMutability": "nonpayable",
      "type": "function"
    }
  ],
  "bytecode": "0x6080604052600c805460ff19908116909155600e805490911690553480156200002757600080fd5b506040805180820182526007815266446f6f646c657360c81b602080830191825283518085019094526006845265444f4f444c4560d01b908401528151919291620000759160009162000104565b5080516200008b90600190602084019062000104565b505050620000a8620000a2620000ae60201b60201c565b620000b2565b620001e7565b3390565b600a80546001600160a01b038381166001600160a01b0319831681179093556040519116919082907f8be0079c531659141344cd1fd0a4f28419497f9722a3daafe3b4186f6b6457e090600090a35050565b8280546200011290620001aa565b90600052602060002090601f01602090048101928262000136576000855562000181565b82601f106200015157805160ff191683800117855562000181565b8280016001018555821562000181579182015b828111156200018157825182559160200191906001019062000164565b506200018f92915062000193565b5090565b5b808211156200018f576000815560010162000194565b600181811c90821680620001bf57607f821691505b60208210811415620001e157634e487b7160e01b600052602260045260246000fd5b50919050565b61261880620001f76000396000f3fe6080604052600436106102045760003560e01c8063715018a611610118578063b88d4fde116100a0578063ddff5b1c1161006f578063ddff5b1c146105ca578063e985e9c5146105dd578063eb8d244414610626578063f2fde38b14610640578063ffe630b51461066057600080fd5b8063b88d4fde1461051f578063c04a28361461053f578063c4e370951461058a578063c87b56dd146105aa57600080fd5b8063833b9499116100e7578063833b94991461049d5780638da5cb5b146104b957806395d89b41146104d7578063a0712d68146104ec578063a22cb465146104ff57600080fd5b8063715018a614610428578063718bc4af1461043d578063819b25ba1461045d5780638295784d1461047d57600080fd5b806332cb6b0c1161019b57806355f804b31161016a57806355f804b31461039e5780636352211e146103be5780636373a6b1146103de57806365f13097146103f357806370a082311461040857600080fd5b806332cb6b0c146103335780633ccfd60b1461034957806342842e0e1461035e5780634f6ccce71461037e57600080fd5b806318160ddd116101d757806318160ddd146102ba57806323b872dd146102d957806329fc6bae146102f95780632f745c591461031357600080fd5b806301ffc9a71461020957806306fdde031461023e578063081812fc14610260578063095ea7b314610298575b600080fd5b34801561021557600080fd5b5061022961022436600461223c565b610680565b60405190151581526020015b60405180910390f35b34801561024a57600080fd5b50610253610691565b6040516102359190612384565b34801561026c57600080fd5b5061028061027b3660046122ba565b610723565b6040516001600160a01b039091168152602001610235565b3480156102a457600080fd5b506102b86102b336600461217a565b6107bd565b005b3480156102c657600080fd5b506008545b604051908152602001610235565b3480156102e557600080fd5b506102b86102f436600461209d565b6108d3565b34801561030557600080fd5b50600e546102299060ff1681565b34801561031f57600080fd5b506102cb61032e36600461217a565b610904565b34801561033f57600080fd5b506102cb61271081565b34801561035557600080fd5b506102b861099a565b34801561036a57600080fd5b506102b861037936600461209d565b6109f7565b34801561038a57600080fd5b506102cb6103993660046122ba565b610a12565b3480156103aa57600080fd5b506102b86103b9366004612274565b610ab3565b3480156103ca57600080fd5b506102806103d93660046122ba565b610af0565b3480156103ea57600080fd5b50610253610b67565b3480156103ff57600080fd5b506102cb600581565b34801561041457600080fd5b506102cb610423366004612051565b610bf5565b34801561043457600080fd5b506102b8610c7c565b34801561044957600080fd5b506102b8610458366004612222565b610cb2565b34801561046957600080fd5b506102b86104783660046122ba565b610cef565b34801561048957600080fd5b506102b86104983660046121a3565b610d56565b3480156104a957600080fd5b506102cb6701b4fbd92b5f800081565b3480156104c557600080fd5b50600a546001600160a01b0316610280565b3480156104e357600080fd5b50610253610e08565b6102b86104fa3660046122ba565b610e17565b34801561050b57600080fd5b506102b861051a366004612151565b610fba565b34801561052b57600080fd5b506102b861053a3660046120d8565b610fc5565b34801561054b57600080fd5b5061057861055a366004612051565b6001600160a01b03166000908152600f602052604090205460ff1690565b60405160ff9091168152602001610235565b34801561059657600080fd5b506102b86105a5366004612222565b610ff7565b3480156105b657600080fd5b506102536105c53660046122ba565b611034565b6102b86105d83660046122d2565b61110f565b3480156105e957600080fd5b506102296105f836600461206b565b6001600160a01b03918216600090815260056020908152604080832093909416825291909152205460ff1690565b34801561063257600080fd5b50600c546102299060ff1681565b34801561064c57600080fd5b506102b861065b366004612051565b61130a565b34801561066c57600080fd5b506102b861067b366004612274565b6113a5565b600061068b826113e2565b92915050565b6060600080546106a090612520565b80601f01602080910402602001604051908101604052809291908181526020018280546106cc90612520565b80156107195780601f106106ee57610100808354040283529160200191610719565b820191906000526020600020905b8154815290600101906020018083116106fc57829003601f168201915b5050505050905090565b6000818152600260205260408120546001600160a01b03166107a15760405162461bcd60e51b815260206004820152602c60248201527f4552433732313a20617070726f76656420717565727920666f72206e6f6e657860448201526b34b9ba32b73a103a37b5b2b760a11b60648201526084015b60405180910390fd5b506000908152600460205260409020546001600160a01b031690565b60006107c882610af0565b9050806001600160a01b0316836001600160a01b031614156108365760405162461bcd60e51b815260206004820152602160248201527f4552433732313a20617070726f76616c20746f2063757272656e74206f776e656044820152603960f91b6064820152608401610798565b336001600160a01b0382161480610852575061085281336105f8565b6108c45760405162461bcd60e51b815260206004820152603860248201527f4552433732313a20617070726f76652063616c6c6572206973206e6f74206f7760448201527f6e6572206e6f7220617070726f76656420666f7220616c6c00000000000000006064820152608401610798565b6108ce8383611407565b505050565b6108dd3382611475565b6108f95760405162461bcd60e51b81526004016107989061241e565b6108ce83838361156c565b600061090f83610bf5565b82106109715760405162461bcd60e51b815260206004820152602b60248201527f455243373231456e756d657261626c653a206f776e657220696e646578206f7560448201526a74206f6620626f756e647360a81b6064820152608401610798565b506001600160a01b03919091166000908152600660209081526040808320938352929052205490565b600a546001600160a01b031633146109c45760405162461bcd60e51b8152600401610798906123e9565b6040514790339082156108fc029083906000818181858888f193505050501580156109f3573d6000803e3d6000fd5b5050565b6108ce83838360405180602001604052806000815250610fc5565b6000610a1d60085490565b8210610a805760405162461bcd60e51b815260206004820152602c60248201527f455243373231456e756d657261626c653a20676c6f62616c20696e646578206f60448201526b7574206f6620626f756e647360a01b6064820152608401610798565b60088281548110610aa157634e487b7160e01b600052603260045260246000fd5b90600052602060002001549050919050565b600a546001600160a01b03163314610add5760405162461bcd60e51b8152600401610798906123e9565b80516109f390600d906020840190611f05565b6000818152600260205260408120546001600160a01b03168061068b5760405162461bcd60e51b815260206004820152602960248201527f4552433732313a206f776e657220717565727920666f72206e6f6e657869737460448201526832b73a103a37b5b2b760b91b6064820152608401610798565b600b8054610b7490612520565b80601f0160208091040260200160405190810160405280929190818152602001828054610ba090612520565b8015610bed5780601f10610bc257610100808354040283529160200191610bed565b820191906000526020600020905b815481529060010190602001808311610bd057829003601f168201915b505050505081565b60006001600160a01b038216610c605760405162461bcd60e51b815260206004820152602a60248201527f4552433732313a2062616c616e636520717565727920666f7220746865207a65604482015269726f206164647265737360b01b6064820152608401610798565b506001600160a01b031660009081526003602052604090205490565b600a546001600160a01b03163314610ca65760405162461bcd60e51b8152600401610798906123e9565b610cb06000611713565b565b600a546001600160a01b03163314610cdc5760405162461bcd60e51b8152600401610798906123e9565b600e805460ff1916911515919091179055565b600a546001600160a01b03163314610d195760405162461bcd60e51b8152600401610798906123e9565b6000610d2460085490565b905060005b828110156108ce57610d4433610d3f838561246f565b611765565b80610d4e8161255b565b915050610d29565b600a546001600160a01b03163314610d805760405162461bcd60e51b8152600401610798906123e9565b60005b82811015610e025781600f6000868685818110610db057634e487b7160e01b600052603260045260246000fd5b9050602002016020810190610dc59190612051565b6001600160a01b031681526020810191909152604001600020805460ff191660ff9290921691909117905580610dfa8161255b565b915050610d83565b50505050565b6060600180546106a090612520565b6000610e2260085490565b600c5490915060ff16610e825760405162461bcd60e51b815260206004820152602260248201527f53616c65206d7573742062652061637469766520746f206d696e7420746f6b656044820152616e7360f01b6064820152608401610798565b6005821115610ed35760405162461bcd60e51b815260206004820152601b60248201527f4578636565646564206d617820746f6b656e20707572636861736500000000006044820152606401610798565b612710610ee0838361246f565b1115610f2e5760405162461bcd60e51b815260206004820181905260248201527f507572636861736520776f756c6420657863656564206d617820746f6b656e736044820152606401610798565b34610f41836701b4fbd92b5f800061249b565b1115610f8f5760405162461bcd60e51b815260206004820152601f60248201527f45746865722076616c75652073656e74206973206e6f7420636f7272656374006044820152606401610798565b60005b828110156108ce57610fa833610d3f838561246f565b80610fb28161255b565b915050610f92565b6109f333838361177f565b610fcf3383611475565b610feb5760405162461bcd60e51b81526004016107989061241e565b610e028484848461184e565b600a546001600160a01b031633146110215760405162461bcd60e51b8152600401610798906123e9565b600c805460ff1916911515919091179055565b6000818152600260205260409020546060906001600160a01b03166110b35760405162461bcd60e51b815260206004820152602f60248201527f4552433732314d657461646174613a2055524920717565727920666f72206e6f60448201526e3732bc34b9ba32b73a103a37b5b2b760891b6064820152608401610798565b60006110bd611881565b905060008151116110dd5760405180602001604052806000815250611108565b806110e784611890565b6040516020016110f8929190612318565b6040516020818303038152906040525b9392505050565b600061111a60085490565b600e5490915060ff1661116f5760405162461bcd60e51b815260206004820152601860248201527f416c6c6f77206c697374206973206e6f742061637469766500000000000000006044820152606401610798565b336000908152600f602052604090205460ff90811690831611156111e05760405162461bcd60e51b815260206004820152602260248201527f4578636565646564206d617820617661696c61626c6520746f20707572636861604482015261736560f01b6064820152608401610798565b6127106111f060ff84168361246f565b111561123e5760405162461bcd60e51b815260206004820181905260248201527f507572636861736520776f756c6420657863656564206d617820746f6b656e736044820152606401610798565b3461125460ff84166701b4fbd92b5f800061249b565b11156112a25760405162461bcd60e51b815260206004820152601f60248201527f45746865722076616c75652073656e74206973206e6f7420636f7272656374006044820152606401610798565b336000908152600f6020526040812080548492906112c490849060ff166124d1565b92506101000a81548160ff021916908360ff16021790555060005b8260ff168110156108ce576112f833610d3f838561246f565b806113028161255b565b9150506112df565b600a546001600160a01b031633146113345760405162461bcd60e51b8152600401610798906123e9565b6001600160a01b0381166113995760405162461bcd60e51b815260206004820152602660248201527f4f776e61626c653a206e6577206f776e657220697320746865207a65726f206160448201526564647265737360d01b6064820152608401610798565b6113a281611713565b50565b600a546001600160a01b031633146113cf5760405162461bcd60e51b8152600401610798906123e9565b80516109f390600b906020840190611f05565b60006001600160e01b0319821663780e9d6360e01b148061068b575061068b826119aa565b600081815260046020526040902080546001600160a01b0319166001600160a01b038416908117909155819061143c82610af0565b6001600160a01b03167f8c5be1e5ebec7d5bd14f71427d1e84f3dd0314c0f7b2291e5b200ac8c7c3b92560405160405180910390a45050565b6000818152600260205260408120546001600160a01b03166114ee5760405162461bcd60e51b815260206004820152602c60248201527f4552433732313a206f70657261746f7220717565727920666f72206e6f6e657860448201526b34b9ba32b73a103a37b5b2b760a11b6064820152608401610798565b60006114f983610af0565b9050806001600160a01b0316846001600160a01b0316148061154057506001600160a01b0380821660009081526005602090815260408083209388168352929052205460ff165b806115645750836001600160a01b031661155984610723565b6001600160a01b0316145b949350505050565b826001600160a01b031661157f82610af0565b6001600160a01b0316146115e35760405162461bcd60e51b815260206004820152602560248201527f4552433732313a207472616e736665722066726f6d20696e636f72726563742060448201526437bbb732b960d91b6064820152608401610798565b6001600160a01b0382166116455760405162461bcd60e51b8152602060048201526024808201527f4552433732313a207472616e7366657220746f20746865207a65726f206164646044820152637265737360e01b6064820152608401610798565b6116508383836119fa565b61165b600082611407565b6001600160a01b03831660009081526003602052604081208054600192906116849084906124ba565b90915550506001600160a01b03821660009081526003602052604081208054600192906116b290849061246f565b909155505060008181526002602052604080822080546001600160a01b0319166001600160a01b0386811691821790925591518493918716917fddf252ad1be2c89b69c2b068fc378daa952ba7f163c4a11628f55a4df523b3ef91a4505050565b600a80546001600160a01b038381166001600160a01b0319831681179093556040519116919082907f8be0079c531659141344cd1fd0a4f28419497f9722a3daafe3b4186f6b6457e090600090a35050565b6109f3828260405180602001604052806000815250611a05565b816001600160a01b0316836001600160a01b031614156117e15760405162461bcd60e51b815260206004820152601960248201527f4552433732313a20617070726f766520746f2063616c6c6572000000000000006044820152606401610798565b6001600160a01b03838116600081815260056020908152604080832094871680845294825291829020805460ff191686151590811790915591519182527f17307eab39ab6107e8899845ad3d59bd9653f200f220920489ca2b5937696c31910160405180910390a3505050565b61185984848461156c565b61186584848484611a38565b610e025760405162461bcd60e51b815260040161079890612397565b6060600d80546106a090612520565b6060816118b45750506040805180820190915260018152600360fc1b602082015290565b8160005b81156118de57806118c88161255b565b91506118d79050600a83612487565b91506118b8565b60008167ffffffffffffffff81111561190757634e487b7160e01b600052604160045260246000fd5b6040519080825280601f01601f191660200182016040528015611931576020820181803683370190505b5090505b8415611564576119466001836124ba565b9150611953600a86612576565b61195e90603061246f565b60f81b81838151811061198157634e487b7160e01b600052603260045260246000fd5b60200101906001600160f81b031916908160001a9053506119a3600a86612487565b9450611935565b60006001600160e01b031982166380ac58cd60e01b14806119db57506001600160e01b03198216635b5e139f60e01b145b8061068b57506301ffc9a760e01b6001600160e01b031983161461068b565b6108ce838383611b45565b611a0f8383611bfd565b611a1c6000848484611a38565b6108ce5760405162461bcd60e51b815260040161079890612397565b60006001600160a01b0384163b15611b3a57604051630a85bd0160e11b81526001600160a01b0385169063150b7a0290611a7c903390899088908890600401612347565b602060405180830381600087803b158015611a9657600080fd5b505af1925050508015611ac6575060408051601f3d908101601f19168201909252611ac391810190612258565b60015b611b20573d808015611af4576040519150601f19603f3d011682016040523d82523d6000602084013e611af9565b606091505b508051611b185760405162461bcd60e51b815260040161079890612397565b805181602001fd5b6001600160e01b031916630a85bd0160e11b149050611564565b506001949350505050565b6001600160a01b038316611ba057611b9b81600880546000838152600960205260408120829055600182018355919091527ff3f7a9fe364faab93b216da50a3214154f22a0a2b415b23a84c8169e8b636ee30155565b611bc3565b816001600160a01b0316836001600160a01b031614611bc357611bc38382611d4b565b6001600160a01b038216611bda576108ce81611de8565b826001600160a01b0316826001600160a01b0316146108ce576108ce8282611ec1565b6001600160a01b038216611c535760405162461bcd60e51b815260206004820181905260248201527f4552433732313a206d696e7420746f20746865207a65726f20616464726573736044820152606401610798565b6000818152600260205260409020546001600160a01b031615611cb85760405162461bcd60e51b815260206004820152601c60248201527f4552433732313a20746f6b656e20616c7265616479206d696e746564000000006044820152606401610798565b611cc4600083836119fa565b6001600160a01b0382166000908152600360205260408120805460019290611ced90849061246f565b909155505060008181526002602052604080822080546001600160a01b0319166001600160a01b03861690811790915590518392907fddf252ad1be2c89b69c2b068fc378daa952ba7f163c4a11628f55a4df523b3ef908290a45050565b60006001611d5884610bf5565b611d6291906124ba565b600083815260076020526040902054909150808214611db5576001600160a01b03841660009081526006602090815260408083208584528252808320548484528184208190558352600790915290208190555b5060009182526007602090815260408084208490556001600160a01b039094168352600681528383209183525290812055565b600854600090611dfa906001906124ba565b60008381526009602052604081205460088054939450909284908110611e3057634e487b7160e01b600052603260045260246000fd5b906000526020600020015490508060088381548110611e5f57634e487b7160e01b600052603260045260246000fd5b6000918252602080832090910192909255828152600990915260408082208490558582528120556008805480611ea557634e487b7160e01b600052603160045260246000fd5b6001900381819060005260206000200160009055905550505050565b6000611ecc83610bf5565b6001600160a01b039093166000908152600660209081526040808320868452825280832085905593825260079052919091209190915550565b828054611f1190612520565b90600052602060002090601f016020900481019282611f335760008555611f79565b82601f10611f4c57805160ff1916838001178555611f79565b82800160010185558215611f79579182015b82811115611f79578251825591602001919060010190611f5e565b50611f85929150611f89565b5090565b5b80821115611f855760008155600101611f8a565b600067ffffffffffffffff80841115611fb957611fb96125b6565b604051601f8501601f19908116603f01168101908282118183101715611fe157611fe16125b6565b81604052809350858152868686011115611ffa57600080fd5b858560208301376000602087830101525050509392505050565b80356001600160a01b038116811461202b57600080fd5b919050565b8035801515811461202b57600080fd5b803560ff8116811461202b57600080fd5b600060208284031215612062578081fd5b61110882612014565b6000806040838503121561207d578081fd5b61208683612014565b915061209460208401612014565b90509250929050565b6000806000606084860312156120b1578081fd5b6120ba84612014565b92506120c860208501612014565b9150604084013590509250925092565b600080600080608085870312156120ed578081fd5b6120f685612014565b935061210460208601612014565b925060408501359150606085013567ffffffffffffffff811115612126578182fd5b8501601f81018713612136578182fd5b61214587823560208401611f9e565b91505092959194509250565b60008060408385031215612163578182fd5b61216c83612014565b915061209460208401612030565b6000806040838503121561218c578182fd5b61219583612014565b946020939093013593505050565b6000806000604084860312156121b7578283fd5b833567ffffffffffffffff808211156121ce578485fd5b818601915086601f8301126121e1578485fd5b8135818111156121ef578586fd5b8760208260051b8501011115612203578586fd5b6020928301955093506122199186019050612040565b90509250925092565b600060208284031215612233578081fd5b61110882612030565b60006020828403121561224d578081fd5b8135611108816125cc565b600060208284031215612269578081fd5b8151611108816125cc565b600060208284031215612285578081fd5b813567ffffffffffffffff81111561229b578182fd5b8201601f810184136122ab578182fd5b61156484823560208401611f9e565b6000602082840312156122cb578081fd5b5035919050565b6000602082840312156122e3578081fd5b61110882612040565b600081518084526123048160208601602086016124f4565b601f01601f19169290920160200192915050565b6000835161232a8184602088016124f4565b83519083019061233e8183602088016124f4565b01949350505050565b6001600160a01b038581168252841660208201526040810183905260806060820181905260009061237a908301846122ec565b9695505050505050565b60208152600061110860208301846122ec565b60208082526032908201527f4552433732313a207472616e7366657220746f206e6f6e20455243373231526560408201527131b2b4bb32b91034b6b83632b6b2b73a32b960711b606082015260800190565b6020808252818101527f4f776e61626c653a2063616c6c6572206973206e6f7420746865206f776e6572604082015260600190565b60208082526031908201527f4552433732313a207472616e736665722063616c6c6572206973206e6f74206f6040820152701ddb995c881b9bdc88185c1c1c9bdd9959607a1b606082015260800190565b600082198211156124825761248261258a565b500190565b600082612496576124966125a0565b500490565b60008160001904831182151516156124b5576124b561258a565b500290565b6000828210156124cc576124cc61258a565b500390565b600060ff821660ff8416808210156124eb576124eb61258a565b90039392505050565b60005b8381101561250f5781810151838201526020016124f7565b83811115610e025750506000910152565b600181811c9082168061253457607f821691505b6020821081141561255557634e487b7160e01b600052602260045260246000fd5b50919050565b600060001982141561256f5761256f61258a565b5060010190565b600082612585576125856125a0565b500690565b634e487b7160e01b600052601160045260246000fd5b634e487b7160e01b600052601260045260246000fd5b634e487b7160e01b600052604160045260246000fd5b6001600160e01b0319811681146113a257600080fdfea2646970667358221220b30de354ec3fa41dfa9b086646c03e7fbaae4a9e8d6c33d65a9c3037123f120364736f6c63430008040033",
  "linkReferences": {},
  "deployedLinkReferences": {}
}